:020000040800F2
:100000009804002001010008930C00086F0B000801
:10001000910C000899010008750E0008000000000E
:10002000000000000000000000000000970C000825
:100030009B01000800000000950C0008C90C000896
:100040001B0100081B0100081B0100081B01000820
:100050001B0100081B0100081B0100081B01000810
:100060001B0100081B0100081B0100081B01000800
:100070001B0100081B0100081B0100081B010008F0
:100080001B0100081B0100081B0100081B010008E0
:100090001B0100081B0100081B0100081B010008D0
:1000A0001B0100081B0100081B0100081B010008C0
:1000B0001B0100081B0100081B0100081B010008B0
:1000C0001B0100081B0100081B0100081B010008A0
:1000D0001B0100081B0100081B0100081B01000890
:1000E0001B0100081B0100081B010008DFF80CD0F1
:1000F00000F040F800480047551000089804002020
:100100000648804706480047FEE7FEE7FEE7FEE7B1
:10011000FEE7FEE7FEE7FEE7FEE7FEE7110D00085B
:10012000ED000008D2B201E000F8012B491EFBD21D
:1001300070470022F6E710B513460A4604461946F2
:10014000FFF7F0FF204610BD30B50B4601460020FA
:100150002022012409E021FA02F59D4205D303FA89
:1001600002F5491B04FA02F52844151EA2F101020A
:10017000F1DC30BD064C074D06E0E06840F00103BD
:1001800094E8070098471034AC42F6D3FFF7B2FF6B
:100190003016000850160008FEE7704770B5044698
:1001A00000F0FEF80546601C02D0044800780444C4
:1001B00000F0F6F8401BA042FAD370BD40000020CA
:1001C0002DE9F84FDFF8B891002409F1040A0AF18B
:1001D000040B23460F270BF1040EC9E00125A540AF
:1001E0002A40AA427DD1674ED1F804C0ACEB060884
:1001F000B44532D014DCBCF1030F3AD009DCBCF1B9
:10020000000F2AD0BCF1010F1CD0BCF1020F31D17C
:100210001DE0BCF1110F17D0BCF1120F2AD119E06B
:10022000B8F5881F19D006DCB8F5803F15D0B8F5B1
:10023000801F1FD111E0B8F5001F0ED0B8F5041FC4
:1002400018D10AE0CB6815E0CB681B1D12E0CB6823
:1002500008330FE0CB680C330CE08B682BB1012B1B
:100260004FF0080303D0456104E0042302E0056178
:1002700000E00023FF2A01D8064601E000F1040651
:100280004FEA840501D9A5F12005D6F8008007FAC8
:1002900005FC28EA0C0803FA05F548EA0508C6F843
:1002A00000804D68ED0062D5374DAE6946F001061D
:1002B000AE61AD6924F0030605F001050095334DEC
:1002C00006EB050CDCF80850A607360F07FA06F80F
:1002D00025EA0805DFF8B880404503D14FF0000853
:1002E00017E044E0DFF8AC80404502D14FF0010850
:1002F0000FE0DFF8A480404502D14FF0020808E08B
:10030000DFF89880404502D14FF0030801E04FF03C
:10031000040808FA06F848EA0508CCF808804D6891
:10032000D9F80060ED034D4601D5164300E0964331
:100330002E604D68DAF80060AD03554601D51643CE
:1003400000E096432E604D68DBF80060ED025D46EC
:1003500001D5164300E096432E604D68DEF800603C
:10036000AD02754601D5164300E096432E60641C2D
:100370000D682A46E5407FF431AFBDE8F88F0000F4
:100380000004014000001110001002400000014074
:1003900000080140000C0140001001400014014021
:1003A00001488068704700004000002002488168D2
:1003B000027811448160704740000020074810B562
:1003C000016841F010010160032000F067F800208F
:1003D00000F006F800F024F8002010BD00200240D4
:1003E00070B50D4D04464FF47A712878B1FBF0F0EA
:1003F0000A490968B1FBF0F000F0DEFA48B9102CA8
:1004000007D200222146501E00F028F800206C6020
:1004100070BD012070BD0000400000204C00002095
:100420000C4808B5816941F001018161816901F0E1
:1004300001010091C16941F08051C161C06900F0C2
:10044000805000900448416821F0E06141F0007163
:10045000416008BD0010024000000140F0B40E4BA6
:100460001B680C46C3F30223C3F10705042D00D912
:100470000425191D072901D2002300E0DB1E0126F7
:1004800006FA05F1491E214099409E40761E16400D
:100490003143F0BC00F000BD0CED00E0064900F077
:1004A000070208684FF6FF03184040EA0220034A9B
:1004B00010430860704700000CED00E00000FA05F2
:1004C0002DE9F0470F46050061D0434E306800F03B
:1004D0000700B84209D2306820F007003843306086
:1004E000306800F00700B84251D128683B4C8107C2
:1004F00012D5400703D5606840F4E060606028785A
:10050000000703D5606840F4605060606068A968C7
:1005100020F0F000084360602878C00728D06868A1
:10052000012810D02168022810D0890700292EDA6E
:10053000616821F0030101436160FFF731FF8046EC
:1005400041F288390DE021688903EFE78901EDE781
:10055000FFF726FFA0EB0801494502D90320BDE8BB
:10056000F0876068696800F00C00B0EB810FEFD194
:10057000306800F00700B8420BD9306820F007005F
:1005800038433060306800F00700B84201D00120E5
:10059000E5E72878400705D56068E96820F4E06061
:1005A000084360602878000706D56068296920F450
:1005B000605040EAC100606000F038F86168084AA5
:1005C000C1F30311515CC840064908600648006841
:1005D000FFF706FF0020C2E70020024000100240A3
:1005E000C61500084C0000204400002004480549BE
:1005F00000684968044AC1F30221515CC840704751
:100600004C00002000100240D6150008044805499F
:1006100000684968044AC1F3C221515CC840704770
:100620004C00002000100240D615000812A185B031
:100630000FC98DE80F0014A0144A00680490516897
:10064000134801F00C03042B10D0082B0ED1C1F37A
:100650008343C9031DF803000AD5516804AAC1F3F6
:100660004041515C0A4A5043B0FBF1F005B070477D
:1006700008494843FAE70000020304050607080991
:100680000A0B0C0D0E0F10100102000000100240AA
:1006900000127A0000093D002DE9F84F040070D0E7
:1006A0002078C04DC00749D06868C0F38100012898
:1006B00007D06868C0F38100022809D16868C003C8
:1006C00006D52868800339D560680028E7D035E072
:1006D0006068B0F5803F0BD010B1B0F5A02F11D0FD
:1006E000286820F480302860286820F4802002E008
:1006F000286840F480302860606890B1FFF750FEB1
:1007000006460AE0286840F480202860F0E700BF31
:10071000FFF746FE801B642873D828688003F7D54E
:100720000CE0FFF73DFE064605E000BFFFF738FE90
:10073000801B6428F0D828688003F7D420789A4E6C
:1007400080074FF001094FF0000839D5686810F0B4
:100750000C0F07D06868C0F38100022809D16868CF
:10076000C00306D42868800714D52069012808D161
:1007700010E02069B0B1C6F80090FFF711FE0746FF
:1007800005E00AE1FFF70CFEC01B0228C4D8286868
:100790008007F7D52868616920F0F80040EAC100B9
:1007A00028600DE0C6F80080FFF7FAFD074604E078
:1007B000FFF7F6FDC01B022823D828688007F7D46E
:1007C000207800072CD57948A169D9B1C0F80090EC
:1007D000FFF7E6FD074604E0FFF7E2FDC01B022835
:1007E0000FD8686A8007F7D571484FF4FA5100684E
:1007F000B0FBF1F0009000BF0098411E0091FAD2CA
:100800000EE080E0C0F80080FFF7CAFD074604E074
:10081000FFF7C6FDC01B022875D8686A8007F7D4A9
:100820002078400760D5E8690027C00008D4E8694F
:1008300040F08050E861E869012700F080500090A6
:100840005C480168C90513D40168834641F480718E
:100850000160FFF7A5FD824606E000BFFFF7A0FD9F
:10086000A0EB0A0064284ED8DBF80000C005F5D5DF
:10087000E06801280AD008B1052813D0286A20F0C2
:1008800001002862286A20F0040002E0286A40F093
:1008900001002862E06841F2883B98B1FFF780FDD3
:1008A00082460BE0286A40F004002862EEE700BFB1
:1008B000FFF776FDA0EB0A0159455AD8286A800750
:1008C000F6D50CE0FFF76CFD824605E0FFF768FD0A
:1008D000A0EB0A0159454CD8286A8007F6D41FB10D
:1008E000E86920F08050E861E06988B36968C1F385
:1008F0008101022944D00228C6F8608004D0FFF7A5
:100900004FFD044638E034E0FFF74AFD074604E0B7
:10091000FFF746FDC01B02282BD828688001F7D4BA
:10092000206AB0F5803F05D16868A16820F40030E6
:1009300008436860D4E908010843696821F4741128
:1009400008436860C6F86090FFF72AFD044606E099
:1009500025E000BFFFF724FD001B022809D8286806
:100960008001F7D51BE000BFFFF71AFD001B02282E
:1009700002D90320BDE8F88F28688001F4D40EE086
:100980000128F7D06868226A00F48031914204D1CE
:10099000616A00F47010884201D00120EAE700206B
:1009A000E8E700000010024000004242800442429A
:1009B0004C0000200070004010B5401EB0F1807F58
:1009C00001D3012010BD4FF0E02460610F216017BA
:1009D00000F062FA0020A06107202061002010BD15
:1009E00070B5040004D094F83900002510B106E079
:1009F000012070BD84F83850204600F023F82420F0
:100A000084F839002068C16821F40051C160204693
:100A100000F0A2F92068016921F490410161206889
:100A2000416921F02A0141612068C16841F4005107
:100A3000C160E563202084F8390084F83A00002082
:100A400070BD000030B585B000240094019402947C
:100A5000039400681449884224D11448C16941F4C0
:100A60008021C161C16901F480210491816941F053
:100A70000801816180690E4D00F0080004904FF478
:100A80008060009002200190032003906946284670
:100A9000FFF796FBE814CDE9000469462846029466
:100AA000FFF78EFB05B030BD00480040001002404B
:100AB000000C01402DE9F843044690F839001F4628
:100AC00016460D46202850D1A5B19EB194F83800A5
:100AD00001284AD0012084F838004FF00008C4F8FB
:100AE0003C80212084F83900FFF75AFCA684814617
:100AF000E68426E00120BDE8F883E08C401EE08417
:100B0000A0684B46B0F5805F4FF000024FF08001C7
:100B10002046009703D000F07BF9E8B90DE000F023
:100B200077F9C8B928882168C0F3080048602069AF
:100B300008B16D1C05E0AD1C03E0216815F8010B40
:100B40004860E08C0028D8D14B4600224021204646
:100B5000009700F05DF908B10320CCE7202084F86D
:100B6000390084F838800020C5E70220C3E7FEE79B
:100B70000021064A0120135C401C1944C0B289B20E
:100B80000728F8D3484280B27047000034000020A4
:100B900010B50446014609A000F06EF90022114686
:100BA000162000F017F84FF4FA70FFF7F7FA224614
:100BB0000021BDE81040032000F00CB8506C6179B2
:100BC0003A2025640A000000002211460C2000F0A3
:100BD00001B8000010B5094CE0706171A271FFF717
:100BE000C7FF010AE17120722146BDE810400A22C8
:100BF0004FF496730248FFF75DBF000034000020F9
:100C000054000020024600210620FFF7E3BF000049
:100C100010B505A000F030F90022BDE810401146E3
:100C20001620FFF7D7BF00004D50332053746F706C
:100C300020210A0000B585B00020019003901248E1
:100C4000816941F020018161816901F020010491F5
:100C5000816941F004018161816901F0040104911D
:100C6000816941F0080181618069694600F00800EE
:100C7000049040F2FF100090012002900348FFF71B
:100C80009FFA05B000BD00000010024000080140BE
:100C9000FEE77047704770470A4864210122C0E9A7
:100CA000021200210261017041708170C1700271F5
:100CB00041711E22C0E90512C16101624162816277
:100CC0007047000000000020FFF770BB10B590B027
:100CD00028216846FFF72DFA14210AA8FFF729FA00
:100CE0000220009001200490102000240590079419
:100CF0006846FFF7D1FC0F20CDE90A040C940D944F
:100D000000210AA80E94FFF7DBFB10B010BD000015
:100D10000D48016841F00101016041680B4A114032
:100D2000416001680A4A11400160016821F4802194
:100D30000160416821F4FE0141604FF41F018160B0
:100D40000449C00308607047001002400000FFF82B
:100D5000FFFFF6FE08ED00E02DE9F04104460068D3
:100D60000169E26821F44051114301612169A068E1
:100D70000843616908432168CA6841F20C639A43D9
:100D80000243CA6020684169A26921F4407111439D
:100D900041611E49206864253226884202D1FFF74E
:100DA00035FC01E0FFF722FC00EBC00101EB001174
:100DB00060686FF018078000B1FBF0F2B2FBF5F24B
:100DC000B1FBF0F37A4303EB8202B1FBF0F306EBE5
:100DD0000212B2FBF5F2B3FBF5F302F0F00202EB04
:100DE0000312B1FBF0F3B1FBF0F0B0FBF5F0784388
:100DF00003EB800006EB0010B0FBF5F0216800F07B
:100E00000F0010448860BDE8F08100000038014008
:100E10002DE9F041984617460E460446069D1DE012
:100E2000681C1BD02DB1FFF7BBFAA0EB0800A8424D
:100E300014D92068C16821F4D071C160206841696B
:100E400021F001014161202084F8390084F83A0042
:100E5000002084F838000320BDE8F0812068006895
:100E600036EA000004D00020B842D9D00020F3E7D1
:100E70000120F9E7FEE700000FB4054B10B503A908
:100E8000044A029800F028F810BC5DF814FB00003A
:100E90002D100008500000200907090E002804DB6F
:100EA00000F1E02080F80014704700F00F0000F11E
:100EB000E02080F8141D704702E008C8121F08C126
:100EC000002AFAD170477047002001E001C1121FCB
:100ED000002AFBD1704700002DE9FF4F89B09B46E7
:100EE0000446002506E025280BD05A460B9990476A
:100EF000641C6D1C20780028F5D10DB02846BDE893
:100F0000F08F0027B8460122474900E0074314F854
:100F1000013F203B02FA03F00842F7D120782E2847
:100F200019D114F8010F47F004072A280ED06FF0EA
:100F30002F022078A0F1300109290CD808EB880194
:100F400002EB410100EB0108641CF2E70A98641C03
:100F500050F8048B0A9020780028CED0642808D05E
:100F6000692806D075281ED05A460B9990476D1CEB
:100F700058E00A994FF00A0901C90A91002802DADB
:100F800040422D2102E0390504D52B218DF8201097
:100F9000012103E0F90704D02021F7E78A4608AED3
:100FA0000DE00021FAE70A994FF00A0901C90A91F8
:100FB000F7E74946FFF7C8F8303106F8011D002869
:100FC000F7D1ADEB060000F12009780701D44FF00E
:100FD0000108C84502DDA8EB090000E000208046BA
:100FE000002706E008A85A46C05D0B9990476D1C83
:100FF0007F1C5745F6DB04E030205A460B9990479A
:101000006D1CB8F10001A8F10108F5DC05E016F847
:10101000010B5A460B9990476D1CB9F10001A9F1DB
:101020000109F4DC641C65E7092801000849096826
:10103000C90706D0064980390968CA074FF06041E0
:1010400001D1704700BF0A68002AFBD008707047C2
:10105000800E00E00EB5FDA0FFF70EFFFFF7AEF922
:10106000FFF734FEFFF7E6FDFE48FD49002501606D
:101070004FF41651C0E901150C26C560C0E90456AD
:101080008561C561FFF7ACFCFFF79EFD4FF4FA6088
:10109000FFF784F8F44C207EFFF7B4FDC820FFF77B
:1010A0007DF80120FFF774FDFFF77AF9EF4F4FF05D
:1010B0000A084FF00B0A40F201194FF0010BE061F2
:1010C000386820632179A279914373D0FFF768F9DA
:1010D0006062216AE64A411A914205D3217819B12A
:1010E00020621320FFF754FDFFF75AF9E169401A17
:1010F000E04988420BD3207848B984F806B0DEA0D6
:10110000FFF7BAFEFFF7C8FDFFF74AF9E061206B71
:1011100010F0410F3FD010F0810F44D010EA090FBA
:1011200004D1A6602078A8B30B20D6E110F0120FEE
:101130004ED010F0110F4BD010F0220F4DD010F008
:10114000420F74D010F0820F6DD010F4817F6BD0FD
:1011500010F0140F69D010F0210F67D010F0240F99
:101160007BD010F0440F79D010F0840F77D010F0BE
:10117000180F75D010F4827F73D010F0280F71D043
:1011800010F0480F6FD010F0880F6DD010F4847FEE
:101190006BD010E105E0C4F80880207808B10D207C
:1011A0009BE1C82005E1C4F808A020780028F8D009
:1011B0000C2092E194E100BFFFF7F2F8E16A411AD6
:1011C00041F28830814273D31820B9E09620F0E0D4
:1011D000A56020780028F9D0EEE70620A0602078EE
:1011E00061780843DDD184F802B0E0680C2810D0A3
:1011F00004DC012807D0022810D106E00D280AD00F
:101200000E280BD109E0032000E00420FFF7C0FC0A
:1012100004E00520FAE70620F8E7E560E068401CF6
:10122000E060BEE703E021E043E064E079E0FFF73F
:10123000B7F82062A062E0620720A0602078002852
:10124000AFD10720FFF7A4FC84F800B0C4F80CB0BD
:10125000C4F810B06570A570A3E777E078E079E096
:10126000C1E0C6E01EE123E12AE130E10820A060F0
:1012700084F803B084E16069401C606187E102206A
:10128000FFF786FC0CE060690A287AD008E0257137
:10129000122002E084F804B01120FFF779FC6561A8
:1012A0002570C4F80CB0C4F810B06570A57082E069
:1012B00048E00920A0602078A1780843B1D184F8E3
:1012C00001B02069012806D0022806D0032808D0E2
:1012D00004280CD107E0082000E00920FFF758FCA3
:1012E00005E00A20FAE7FFF793FC256165702069A5
:1012F000401C206155E79620C4F808B0FEF74EFF69
:101300002078E8B3FFF74CF8E16A411A41F28830DF
:10131000814202D31920FFF73BFCFFF741F8E0625E
:1013200049E0C4F808B0207800283FF44FAFFFF739
:1013300037F8E16A411A41F28830814202D319201C
:10134000FFF726FCFFF72CF8E0623FE7022034E1CC
:10135000032032E1FFF724F820620420A060A06996
:10136000401DA0611E2801DB1E20A061A0786178CD
:101370000843217808430FD1207EFFF743FC01E0AA
:1013800019E009E16420FEF709FF1420FFF700FCD3
:101390003EA0A169FFF770FD207848B1FFF700F883
:1013A000A16A411A41F2883081424ED315204AE0A9
:1013B0003220FEF7F3FEA06864283FF481AE0828CF
:1013C00000D0E570FEF7ECFFE061A571207961784F
:1013D0008DE82300A37822782F48A168FFF74CFD01
:1013E0006420A0606CE6FEF7DBFF20621020A060A6
:1013F000D2E7FEF7D5FF20620520A060A069401F5C
:10140000A061002800DCA561A078617808432178FC
:1014100008430CD1207EFFF7F5FB6420FEF7BEFEEB
:101420001720FFF7B5FB19A0A169FFF725FD20786C
:101430000028BDD0FEF7B4FFA16A411A41F28830FE
:10144000814202D31620FFF7A3FB27E04170706CA6
:1014500069636174696F6E2073746172740A00004D
:10146000004800405400002000000020080801400F
:10147000C0D40100C0270900476F20746F20736C2F
:10148000656570206D6F64650A000000566F6C3AE8
:101490002025640A00000000E0150008FEF780FF28
:1014A000A06285E7FEF77CFF20621120A060BEE706
:1014B0000D20A060207800283FF4B3AE10200CE08F
:1014C0000E20A06020780028F6D00F2005E00F2025
:1014D000A06020780028EFD00E20FFF759FB60E6CF
:1014E00010F0410F3AD010F0810F3AD010EA090FF6
:1014F00001D1A66055E610F0120F35D010F0220F82
:1015000034D010F0420F33D010F0820F32D010F4EC
:10151000817F46D010F0140F45D010F0240F3FF417
:1015200015AF10F0440F3FF413AF10F0840F3DD00F
:1015300010F0180F3CD010F4827F3BD010F0280F31
:101540003AD010F0480F3AD010F0880F39D010F48C
:10155000847F7FF41EAE0F20A06022E6C4F80880CE
:101560001FE6C4F808A01CE6A5602FE60620F3E7F6
:101570000720F1E70820A06084F803B0FFF748FBDC
:10158000C820FEF70BFEE07800287FF474AE2078C8
:1015900000283FF478AE72E6207900283FF47AAE56
:1015A00075E60920D8E7C4F808B00FE6042004E087
:1015B000102002E0052000E01120A06006E60D20CA
:1015C000CAE70E20C8E7000000000000000001028A
:1015D00003040607080900000000010203040000DC
:1015E0004B65793A202564202D2D20497353746171
:1015F00072743A202564202D2D2049734D6F646547
:101600003A202564202D2D2069734F6E3A202564E1
:10161000202D2D20697353657475703A2025642040
:101620002D2D206973536C6565703A2025640A007E
:10163000501600080000002054000000B80E0008FA
:10164000A41600085400002044040000C80E00083E
:101650000000000001000000640000000100000024
:1016600001000000000000001E000000000000005B
:10167000000000000000000000000000000000006A
:10168000000000007EFF06000100000000EF0000E7
:101690000100000010000000000000000024F40021
:0416A0000000000046
:04000005080000ED02
:00000001FF
