:020000040800F2
:100000008804002001010008930C00086F0B000811
:10001000910C000899010008450E0008000000003E
:10002000000000000000000000000000970C000825
:100030009B01000800000000950C0008990C0008C6
:100040001B0100081B0100081B0100081B01000820
:100050001B0100081B0100081B0100081B01000810
:100060001B0100081B0100081B0100081B01000800
:100070001B0100081B0100081B0100081B010008F0
:100080001B0100081B0100081B0100081B010008E0
:100090001B0100081B0100081B0100081B010008D0
:1000A0001B0100081B0100081B0100081B010008C0
:1000B0001B0100081B0100081B0100081B010008B0
:1000C0001B0100081B0100081B0100081B010008A0
:1000D0001B0100081B0100081B0100081B01000890
:1000E0001B0100081B0100081B010008DFF80CD0F1
:1000F00000F040F800480047251000088804002060
:100100000648804706480047FEE7FEE7FEE7FEE7B1
:10011000FEE7FEE7FEE7FEE7FEE7FEE7E10C00088C
:10012000ED000008D2B201E000F8012B491EFBD21D
:1001300070470022F6E710B513460A4604461946F2
:10014000FFF7F0FF204610BD30B50B4601460020FA
:100150002022012409E021FA02F59D4205D303FA89
:1001600002F5491B04FA02F52844151EA2F101020A
:10017000F1DC30BD064C074D06E0E06840F00103BD
:1001800094E8070098471034AC42F6D3FFF7B2FF6B
:100190001014000830140008FEE7704770B50446DC
:1001A00000F0FEF80546601C02D0044800780444C4
:1001B00000F0F6F8401BA042FAD370BD34000020D6
:1001C0002DE9F84FDFF8B891002409F1040A0AF18B
:1001D000040B23460F270BF1040EC9E00125A540AF
:1001E0002A40AA427DD1674ED1F804C0ACEB060884
:1001F000B44532D014DCBCF1030F3AD009DCBCF1B9
:10020000000F2AD0BCF1010F1CD0BCF1020F31D17C
:100210001DE0BCF1110F17D0BCF1120F2AD119E06B
:10022000B8F5881F19D006DCB8F5803F15D0B8F5B1
:10023000801F1FD111E0B8F5001F0ED0B8F5041FC4
:1002400018D10AE0CB6815E0CB681B1D12E0CB6823
:1002500008330FE0CB680C330CE08B682BB1012B1B
:100260004FF0080303D0456104E0042302E0056178
:1002700000E00023FF2A01D8064601E000F1040651
:100280004FEA840501D9A5F12005D6F8008007FAC8
:1002900005FC28EA0C0803FA05F548EA0508C6F843
:1002A00000804D68ED0062D5374DAE6946F001061D
:1002B000AE61AD6924F0030605F001050095334DEC
:1002C00006EB050CDCF80850A607360F07FA06F80F
:1002D00025EA0805DFF8B880404503D14FF0000853
:1002E00017E044E0DFF8AC80404502D14FF0010850
:1002F0000FE0DFF8A480404502D14FF0020808E08B
:10030000DFF89880404502D14FF0030801E04FF03C
:10031000040808FA06F848EA0508CCF808804D6891
:10032000D9F80060ED034D4601D5164300E0964331
:100330002E604D68DAF80060AD03554601D51643CE
:1003400000E096432E604D68DBF80060ED025D46EC
:1003500001D5164300E096432E604D68DEF800603C
:10036000AD02754601D5164300E096432E60641C2D
:100370000D682A46E5407FF431AFBDE8F88F0000F4
:100380000004014000001110001002400000014074
:1003900000080140000C0140001001400014014021
:1003A00001488068704700003400002002488168DE
:1003B000027811448160704734000020074810B56E
:1003C000016841F010010160032000F067F800208F
:1003D00000F006F800F024F8002010BD00200240D4
:1003E00070B50D4D04464FF47A712878B1FBF0F0EA
:1003F0000A490968B1FBF0F000F0DEFA48B9102CA8
:1004000007D200222146501E00F028F800206C6020
:1004100070BD012070BD00003400002040000020AD
:100420000C4808B5816941F001018161816901F0E1
:1004300001010091C16941F08051C161C06900F0C2
:10044000805000900448416821F0E06141F0007163
:10045000416008BD0010024000000140F0B40E4BA6
:100460001B680C46C3F30223C3F10705042D00D912
:100470000425191D072901D2002300E0DB1E0126F7
:1004800006FA05F1491E214099409E40761E16400D
:100490003143F0BC00F0E8BC0CED00E0064900F090
:1004A000070208684FF6FF03184040EA0220034A9B
:1004B00010430860704700000CED00E00000FA05F2
:1004C0002DE9F0470F46050061D0434E306800F03B
:1004D0000700B84209D2306820F007003843306086
:1004E000306800F00700B84251D128683B4C8107C2
:1004F00012D5400703D5606840F4E060606028785A
:10050000000703D5606840F4605060606068A968C7
:1005100020F0F000084360602878C00728D06868A1
:10052000012810D02168022810D0890700292EDA6E
:10053000616821F0030101436160FFF731FF8046EC
:1005400041F288390DE021688903EFE78901EDE781
:10055000FFF726FFA0EB0801494502D90320BDE8BB
:10056000F0876068696800F00C00B0EB810FEFD194
:10057000306800F00700B8420BD9306820F007005F
:1005800038433060306800F00700B84201D00120E5
:10059000E5E72878400705D56068E96820F4E06061
:1005A000084360602878000706D56068296920F450
:1005B000605040EAC100606000F038F86168084AA5
:1005C000C1F30311515CC840064908600648006841
:1005D000FFF706FF0020C2E70020024000100240A3
:1005E000F8130008400000203800002004480549A6
:1005F00000684968044AC1F30221515CC840704751
:10060000400000200010024008140008044805497A
:1006100000684968044AC1F3C221515CC840704770
:1006200040000020001002400814000812A185B00C
:100630000FC98DE80F0014A0144A00680490516897
:10064000134801F00C03042B10D0082B0ED1C1F37A
:100650008343C9031DF803000AD5516804AAC1F3F6
:100660004041515C0A4A5043B0FBF1F005B070477D
:1006700008494843FAE70000020304050607080991
:100680000A0B0C0D0E0F10100102000000100240AA
:1006900000127A0000093D002DE9F84F040070D0E7
:1006A0002078C04DC00749D06868C0F38100012898
:1006B00007D06868C0F38100022809D16868C003C8
:1006C00006D52868800339D560680028E7D035E072
:1006D0006068B0F5803F0BD010B1B0F5A02F11D0FD
:1006E000286820F480302860286820F4802002E008
:1006F000286840F480302860606890B1FFF750FEB1
:1007000006460AE0286840F480202860F0E700BF31
:10071000FFF746FE801B642873D828688003F7D54E
:100720000CE0FFF73DFE064605E000BFFFF738FE90
:10073000801B6428F0D828688003F7D420789A4E6C
:1007400080074FF001094FF0000839D5686810F0B4
:100750000C0F07D06868C0F38100022809D16868CF
:10076000C00306D42868800714D52069012808D161
:1007700010E02069B0B1C6F80090FFF711FE0746FF
:1007800005E00AE1FFF70CFEC01B0228C4D8286868
:100790008007F7D52868616920F0F80040EAC100B9
:1007A00028600DE0C6F80080FFF7FAFD074604E078
:1007B000FFF7F6FDC01B022823D828688007F7D46E
:1007C000207800072CD57948A169D9B1C0F80090EC
:1007D000FFF7E6FD074604E0FFF7E2FDC01B022835
:1007E0000FD8686A8007F7D571484FF4FA5100684E
:1007F000B0FBF1F0009000BF0098411E0091FAD2CA
:100800000EE080E0C0F80080FFF7CAFD074604E074
:10081000FFF7C6FDC01B022875D8686A8007F7D4A9
:100820002078400760D5E8690027C00008D4E8694F
:1008300040F08050E861E869012700F080500090A6
:100840005C480168C90513D40168834641F480718E
:100850000160FFF7A5FD824606E000BFFFF7A0FD9F
:10086000A0EB0A0064284ED8DBF80000C005F5D5DF
:10087000E06801280AD008B1052813D0286A20F0C2
:1008800001002862286A20F0040002E0286A40F093
:1008900001002862E06841F2883B98B1FFF780FDD3
:1008A00082460BE0286A40F004002862EEE700BFB1
:1008B000FFF776FDA0EB0A0159455AD8286A800750
:1008C000F6D50CE0FFF76CFD824605E0FFF768FD0A
:1008D000A0EB0A0159454CD8286A8007F6D41FB10D
:1008E000E86920F08050E861E06988B36968C1F385
:1008F0008101022944D00228C6F8608004D0FFF7A5
:100900004FFD044638E034E0FFF74AFD074604E0B7
:10091000FFF746FDC01B02282BD828688001F7D4BA
:10092000206AB0F5803F05D16868A16820F40030E6
:1009300008436860D4E908010843696821F4741128
:1009400008436860C6F86090FFF72AFD044606E099
:1009500025E000BFFFF724FD001B022809D8286806
:100960008001F7D51BE000BFFFF71AFD001B02282E
:1009700002D90320BDE8F88F28688001F4D40EE086
:100980000128F7D06868226A00F48031914204D1CE
:10099000616A00F47010884201D00120EAE700206B
:1009A000E8E700000010024000004242800442429A
:1009B000400000200070004010B5401EB0F1807F64
:1009C00001D3012010BD4FF0E02460610F216017BA
:1009D00000F04AFA0020A06107202061002010BD2D
:1009E00070B5040004D094F83900002510B106E079
:1009F000012070BD84F83850204600F023F82420F0
:100A000084F839002068C16821F40051C160204693
:100A100000F08AF92068016921F4904101612068A1
:100A2000416921F02A0141612068C16841F4005107
:100A3000C160E563202084F8390084F83A00002082
:100A400070BD000030B585B000240094019402947C
:100A5000039400681449884224D11448C16941F4C0
:100A60008021C161C16901F480210491816941F053
:100A70000801816180690E4D00F0080004904FF478
:100A80008060009002200190032003906946284670
:100A9000FFF796FBE814CDE9000469462846029466
:100AA000FFF78EFB05B030BD00480040001002404B
:100AB000000C01402DE9F843044690F839001F4628
:100AC00016460D46202850D1A5B19EB194F83800A5
:100AD00001284AD0012084F838004FF00008C4F8FB
:100AE0003C80212084F83900FFF75AFCA684814617
:100AF000E68426E00120BDE8F883E08C401EE08417
:100B0000A0684B46B0F5805F4FF000024FF08001C7
:100B10002046009703D000F063F9E8B90DE000F03B
:100B20005FF9C8B928882168C0F3080048602069C7
:100B300008B16D1C05E0AD1C03E0216815F8010B40
:100B40004860E08C0028D8D14B4600224021204646
:100B5000009700F045F908B10320CCE7202084F885
:100B6000390084F838800020C5E70220C3E7FEE79B
:100B70000021064A0120135C401C1944C0B289B20E
:100B80000728F8D3484280B27047000028000020B0
:100B900010B50446014609A000F056F9002211469E
:100BA000162000F017F84FF4FA70FFF7F7FA224614
:100BB0000021BDE81040032000F00CB8506C6179B2
:100BC0003A2025640A000000002211460C2000F0A3
:100BD00001B8000010B5094CE0706171A271FFF717
:100BE000C7FF010AE17120722146BDE810400A22C8
:100BF0004FF496730248FFF75DBF00002800002005
:100C000048000020024600210620FFF7E3BF000055
:100C100010B505A000F018F90022BDE810401146FB
:100C20001620FFF7D7BF00004D50332053746F706C
:100C300020210A0000B585B00020019003901248E1
:100C4000816941F020018161816901F020010491F5
:100C5000816941F004018161816901F0040104911D
:100C6000816941F0080181618069694600F00800EE
:100C7000049040F2FF100090012002900348FFF71B
:100C80009FFA05B000BD00000010024000080140BE
:100C9000FEE7704770477047FFF788BB10B590B00C
:100CA00028216846FFF745FA14210AA8FFF741FA00
:100CB0000220009001200490102000240590079449
:100CC0006846FFF7E9FC0F20CDE90A040C940D9467
:100CD00000210AA80E94FFF7F3FB10B010BD00002E
:100CE0000D48016841F00101016041680B4A114063
:100CF000416001680A4A11400160016821F48021C5
:100D00000160416821F4FE0141604FF41F018160E0
:100D10000449C00308607047001002400000FFF85B
:100D2000FFFFF6FE08ED00E02DE9F0410446006803
:100D30000169E26821F44051114301612169A06811
:100D40000843616908432168CA6841F20C639A4309
:100D50000243CA6020684169A26921F440711143CD
:100D600041611E49206864253226884202D1FFF77E
:100D70004DFC01E0FFF73AFC00EBC00101EB001174
:100D800060686FF018078000B1FBF0F2B2FBF5F27B
:100D9000B1FBF0F37A4303EB8202B1FBF0F306EB15
:100DA0000212B2FBF5F2B3FBF5F302F0F00202EB34
:100DB0000312B1FBF0F3B1FBF0F0B0FBF5F07843B8
:100DC00003EB800006EB0010B0FBF5F0216800F0AB
:100DD0000F0010448860BDE8F08100000038014039
:100DE0002DE9F041984617460E460446069D1DE043
:100DF000681C1BD02DB1FFF7D3FAA0EB0800A84266
:100E000014D92068C16821F4D071C160206841699B
:100E100021F001014161202084F8390084F83A0072
:100E2000002084F838000320BDE8F08120680068C5
:100E300036EA000004D00020B842D9D00020F3E701
:100E40000120F9E7FEE700000FB4054B10B503A938
:100E5000044A029800F028F810BC5DF814FB00006A
:100E6000FD0F0008440000200907090E002804DBDC
:100E700000F1E02080F80014704700F00F0000F14E
:100E8000E02080F8141D704702E008C8121F08C156
:100E9000002AFAD170477047002001E001C1121FFB
:100EA000002AFBD1704700002DE9FF4F89B09B4617
:100EB0000446002506E025280BD05A460B9990479A
:100EC000641C6D1C20780028F5D10DB02846BDE8C3
:100ED000F08F0027B8460122474900E0074314F885
:100EE000013F203B02FA03F00842F7D120782E2878
:100EF00019D114F8010F47F004072A280ED06FF01B
:100F00002F022078A0F1300109290CD808EB8801C4
:100F100002EB410100EB0108641CF2E70A98641C33
:100F200050F8048B0A9020780028CED0642808D08E
:100F3000692806D075281ED05A460B9990476D1C1B
:100F400058E00A994FF00A0901C90A91002802DA0B
:100F500040422D2102E0390504D52B218DF82010C7
:100F6000012103E0F90704D02021F7E78A4608AE03
:100F70000DE00021FAE70A994FF00A0901C90A9128
:100F8000F7E74946FFF7E0F8303106F8011D002881
:100F9000F7D1ADEB060000F12009780701D44FF03E
:100FA0000108C84502DDA8EB090000E000208046EA
:100FB000002706E008A85A46C05D0B9990476D1CB3
:100FC0007F1C5745F6DB04E030205A460B999047CA
:100FD0006D1CB8F10001A8F10108F5DC05E016F878
:100FE000010B5A460B9990476D1CB9F10001A9F10C
:100FF0000109F4DC641C65E7092801000849096857
:10100000C90706D0064980390968CA074FF0604110
:1010100001D1704700BF0A68002AFBD008707047F2
:10102000800E00E0E7A0FFF70FFFFFF7C7F9FFF71B
:1010300035FEFFF7FFFDE948E749002501604FF461
:101040001651C0E901150C21C560C0E90451856144
:10105000C561FFF7C5FCFFF7B7FD4FF4FA60FFF776
:101060009DF8DF4C207DFFF7CDFDC820FFF796F8F7
:101070000120FFF78DFDDB4F40F201164FF0010814
:10108000386860626179002974D0FFF789F9E061FE
:10109000A169D54A411A914214D3617891B1A061F6
:1010A000206A0A280BD2DFE800F00A0507494B4DF9
:1010B0004F515355132000E01420FFF769FD206ABB
:1010C000401C2062606A10F0410F45D010F0810F83
:1010D00048D0304205D125716078002849D00B20D6
:1010E00045E010F0120F46D010F0220F46D010F05D
:1010F000420F67D010F0820F7AD010F4817F78D041
:1011000010F0140F76D010F0240F74D010F0440FAC
:1011100072D010F0840F70D010F4827F6ED010F077
:10112000480F6CD010F0880F6AD010F4847FA7D1DC
:10113000257160780028D1D00E2018E01520BCE77A
:101140001620BAE71720B8E71820B6E71920B4E749
:101150001A20B2E71B20B0E725716078002808D07C
:101160000D2004E025716078002802D00C20FFF7E4
:101170000FFDC6E0C9E0257135208CE0257160784F
:10118000A178084333D184F80380A0680C2810D0DC
:1011900004DC012807D0022810D106E00D280AD06F
:1011A0000E280BD109E0032000E00420FFF7F0FC3B
:1011B00004E00520FAE70620F8E7A560A068401CD7
:1011C000A0605EE0FFF7ECF8C4F82080A061257114
:1011D000607800280BD10720FFF7DAFC84F8018043
:1011E000C4F808802570C4F80C80A570E57088E00C
:1011F00007E026E047E049E04BE04FE06DE076E0B5
:101200007AE084F80480C820FEF7C8FF207910B186
:101210002069401C2061607818B10220FFF7B8FCFB
:101220000DE020690A280AD1607910B16571122099
:1012300002E084F805801120FFF7AAFC25612562F1
:10124000B4E025716078E17808435AD184F80280CF
:10125000E068012806D0022806D0032808D0042818
:101260000CD107E0082000E00920FFF791FC05E021
:101270000A20FAE7FFF7CCFCE560A570E068401CA7
:10128000E06025703DE02571302004E025713120BB
:1012900001E0257132202070962033E025712B204B
:1012A00020706069401D60611E2801DB1E206061A6
:1012B000E078A1780843617808430CD1207DFFF7DE
:1012C000A1FC6420FEF76AFF1C20FFF761FC47A029
:1012D0006169FFF7B9FD322014E025712D202070DF
:1012E0006069401F60610028E2DC6561E0E725710C
:1012F000607830B110203AE72571607808B10F208E
:1013000035E7C820FEF74AFFBAE610F0410F2BD0B0
:1013100010F0810F28D0304226D010F0120F4ED09E
:1013200010F0220F20D010F0420F1DD010F0820FCD
:101330001CD010F4817F17D010F0140F3FD010F0A4
:10134000240F3CD010F0440F39D010F0840F36D069
:1013500010F4827F33D010F0480F05D010F0880FC2
:1013600002D010F4847FCFD12571CAE784F80480BD
:10137000FFF74EFCC820FEF711FF207910B120695D
:10138000401C2061607818B10220FFF701FC0DE0DD
:1013900020690A280AD1607910B16571122002E033
:1013A00084F805801120FFF7F3FB25616570C4F810
:1013B00008802570C4F80C80A570E57060E6257182
:1013C0006AE700004170706C69636174696F6E2038
:1013D00073746172740A00000048004048000020E5
:1013E0000000002008080140C0D40100566F6C3A8C
:1013F0002025640A0000000000000000000000003A
:1014000001020304060708090000000001020304AA
:10141000301400080000002048000000880E00087A
:10142000781400084800002040040000980E0008CE
:101430006B0000000001000001000000010000003E
:10144000000000001E00000000000000000000007E
:1014500000000000000000007EFF06000100000008
:1014600000EF00000100000010000000000000007C
:081470000024F400000000005C
:04000005080000ED02
:00000001FF
