:020000040800F2
:10000000A804002001010008AF0C00087B0B0008C9
:10001000AD0C000899010008A10E000800000000C6
:10002000000000000000000000000000B30C000809
:100030009B01000800000000B10C0008F50C00084E
:100040001B0100081B0100081B0100081B01000820
:100050001B0100081B0100081B0100081B01000810
:100060001B0100081B0100081B0100081B01000800
:100070001B0100081B0100081B0100081B010008F0
:100080001B0100081B0100081B0100081B010008E0
:100090001B0100081B0100081B0100081B010008D0
:1000A0001B0100081B0100081B0100081B010008C0
:1000B0001B0100081B0100081B0100081B010008B0
:1000C0001B0100081B0100081B0100081B010008A0
:1000D0001B0100081B0100081B0100081B01000890
:1000E0001B0100081B0100081B010008DFF80CD0F1
:1000F00000F040F80048004781100008A8040020E4
:100100000648804706480047FEE7FEE7FEE7FEE7B1
:10011000FEE7FEE7FEE7FEE7FEE7FEE73D0D00082F
:10012000ED000008D2B201E000F8012B491EFBD21D
:1001300070470022F6E710B513460A4604461946F2
:10014000FFF7F0FF204610BD30B50B4601460020FA
:100150002022012409E021FA02F59D4205D303FA89
:1001600002F5491B04FA02F52844151EA2F101020A
:10017000F1DC30BD064C074D06E0E06840F00103BD
:1001800094E8070098471034AC42F6D3FFF7B2FF6B
:100190003818000858180008FEE7704770B5044684
:1001A00000F004F90546601C02D0044800780444BD
:1001B00000F0FCF8401BA042FAD370BD50000020B4
:1001C0002DE9F84FDFF8B891002409F1040A0AF18B
:1001D000040B23460F270BF1040EC9E00125A540AF
:1001E0002A40AA427DD1674ED1F804C0ACEB060884
:1001F000B44532D014DCBCF1030F3AD009DCBCF1B9
:10020000000F2AD0BCF1010F1CD0BCF1020F31D17C
:100210001DE0BCF1110F17D0BCF1120F2AD119E06B
:10022000B8F5881F19D006DCB8F5803F15D0B8F5B1
:10023000801F1FD111E0B8F5001F0ED0B8F5041FC4
:1002400018D10AE0CB6815E0CB681B1D12E0CB6823
:1002500008330FE0CB680C330CE08B682BB1012B1B
:100260004FF0080303D0456104E0042302E0056178
:1002700000E00023FF2A01D8064601E000F1040651
:100280004FEA840501D9A5F12005D6F8008007FAC8
:1002900005FC28EA0C0803FA05F548EA0508C6F843
:1002A00000804D68ED0062D5374DAE6946F001061D
:1002B000AE61AD6924F0030605F001050095334DEC
:1002C00006EB050CDCF80850A607360F07FA06F80F
:1002D00025EA0805DFF8B880404503D14FF0000853
:1002E00017E044E0DFF8AC80404502D14FF0010850
:1002F0000FE0DFF8A480404502D14FF0020808E08B
:10030000DFF89880404502D14FF0030801E04FF03C
:10031000040808FA06F848EA0508CCF808804D6891
:10032000D9F80060ED034D4601D5164300E0964331
:100330002E604D68DAF80060AD03554601D51643CE
:1003400000E096432E604D68DBF80060ED025D46EC
:1003500001D5164300E096432E604D68DEF800603C
:10036000AD02754601D5164300E096432E60641C2D
:100370000D682A46E5407FF431AFBDE8F88F0000F4
:100380000004014000001110001002400000014074
:1003900000080140000C0140001001400014014021
:1003A0008068084000D00120704700000148806844
:1003B0007047000050000020024881680278114414
:1003C0008160704750000020074810B5016841F077
:1003D00010010160032000F067F8002000F006F82B
:1003E00000F024F8002010BD0020024070B50D4D33
:1003F00004464FF47A712878B1FBF0F00A49096895
:10040000B1FBF0F000F0DEFA48B9102C07D2002260
:100410002146501E00F028F800206C6070BD0120BD
:1004200070BD0000500000205C0000200C4808B5A2
:10043000816941F001018161816901F0010100914F
:10044000C16941F08051C161C06900F080500090E5
:100450000448416821F0E06141F00071416008BD4D
:100460000010024000000140F0B40E4B1B680C4627
:10047000C3F30223C3F10705042D00D90425191D78
:10048000072901D2002300E0DB1E012606FA05F150
:10049000491E214099409E40761E16403143F0BCD3
:1004A00000F010BD0CED00E0064900F007020868FE
:1004B0004FF6FF03184040EA0220034A1043086049
:1004C000704700000CED00E00000FA052DE9F04750
:1004D0000F46050061D0434E306800F00700B84277
:1004E00009D2306820F0070038433060306800F0EF
:1004F0000700B84251D128683B4C810712D540070C
:1005000003D5606840F4E06060602878000703D598
:10051000606840F4605060606068A96820F0F00096
:10052000084360602878C00728D06868012810D088
:100530002168022810D0890700292EDA616821F08D
:10054000030101436160FFF731FF804641F28839C2
:100550000DE021688903EFE78901EDE7FFF726FF4A
:10056000A0EB0801494502D90320BDE8F087606887
:10057000696800F00C00B0EB810FEFD1306800F03B
:100580000700B8420BD9306820F0070038433060CC
:10059000306800F00700B84201D00120E5E7287874
:1005A000400705D56068E96820F4E06008436060B2
:1005B0002878000706D56068296920F4605040EA71
:1005C000C100606000F038F86168084AC1F30311A7
:1005D000515CC8400649086006480068FFF706FFFE
:1005E0000020C2E70020024000100240C0170008AF
:1005F0005C00002054000020044805490068496858
:10060000044AC1F30221515CC84070475C000020DD
:1006100000100240D01700080448054900684968E6
:10062000044AC1F3C221515CC84070475C000020FD
:1006300000100240D017000812A185B00FC98DE844
:100640000F0014A0144A006804905168134801F088
:100650000C03042B10D0082B0ED1C1F38343C90324
:100660001DF803000AD5516804AAC1F34041515C4A
:100670000A4A5043B0FBF1F005B0704708494843BF
:10068000FAE7000002030405060708090A0B0C0D2F
:100690000E0F1010010200000010024000127A003C
:1006A00000093D002DE9F84F040070D02078C04DBE
:1006B000C00749D06868C0F38100012807D0686886
:1006C000C0F38100022809D16868C00306D52868F4
:1006D000800339D560680028E7D035E06068B0F560
:1006E000803F0BD010B1B0F5A02F11D0286820F4B6
:1006F00080302860286820F4802002E0286840F4D8
:1007000080302860606890B1FFF750FE06460AE02E
:10071000286840F480202860F0E700BFFFF746FE1D
:10072000801B642873D828688003F7D50CE0FFF796
:100730003DFE064605E000BFFFF738FE801B64283B
:10074000F0D828688003F7D420789A4E80074FF0BD
:1007500001094FF0000839D5686810F00C0F07D078
:100760006868C0F38100022809D16868C00306D414
:100770002868800714D52069012808D110E0206975
:10078000B0B1C6F80090FFF711FE074605E00AE198
:10079000FFF70CFEC01B0228C4D828688007F7D5D5
:1007A0002868616920F0F80040EAC10028600DE087
:1007B000C6F80080FFF7FAFD074604E0FFF7F6FDF4
:1007C000C01B022823D828688007F7D420780007A8
:1007D0002CD57948A169D9B1C0F80090FFF7E6FDA2
:1007E000074604E0FFF7E2FDC01B02280FD8686A45
:1007F0008007F7D571484FF4FA510068B0FBF1F06B
:10080000009000BF0098411E0091FAD20EE080E0F7
:10081000C0F80080FFF7CAFD074604E0FFF7C6FDF9
:10082000C01B022875D8686A8007F7D42078400773
:1008300060D5E8690027C00008D4E86940F080501E
:10084000E861E869012700F0805000905C48016889
:10085000C90513D40168834641F480710160FFF734
:10086000A5FD824606E000BFFFF7A0FDA0EB0A0051
:1008700064284ED8DBF80000C005F5D5E0680128F3
:100880000AD008B1052813D0286A20F00100286298
:10089000286A20F0040002E0286A40F00100286283
:1008A000E06841F2883B98B1FFF780FD82460BE09B
:1008B000286A40F004002862EEE700BFFFF776FDEB
:1008C000A0EB0A0159455AD8286A8007F6D50CE0F2
:1008D000FFF76CFD824605E0FFF768FDA0EB0A011B
:1008E00059454CD8286A8007F6D41FB1E86920F032
:1008F0008050E861E06988B36968C1F38101022929
:1009000044D00228C6F8608004D0FFF74FFD0446AB
:1009100038E034E0FFF74AFD074604E0FFF746FD04
:10092000C01B02282BD828688001F7D4206AB0F5B4
:10093000803F05D16868A16820F4003008436860F2
:10094000D4E908010843696821F474110843686018
:10095000C6F86090FFF72AFD044606E025E000BFD8
:10096000FFF724FD001B022809D828688001F7D56D
:100970001BE000BFFFF71AFD001B022802D903206D
:10098000BDE8F88F28688001F4D40EE00128F7D084
:100990006868226A00F48031914204D1616A00F4EF
:1009A0007010884201D00120EAE70020E8E700004B
:1009B0000010024000004242800442425C000020DD
:1009C0000070004010B5401EB0F1807F01D30120BF
:1009D00010BD4FF0E02460610F21601700F072FA43
:1009E0000020A06107202061002010BD70B5040028
:1009F00004D094F83900002510B106E0012070BD44
:100A000084F83850204600F023F8242084F8390078
:100A10002068C16821F40051C160204600F0B2F99D
:100A20002068016921F4904101612068416921F049
:100A30002A0141612068C16841F40051C160E56349
:100A4000202084F8390084F83A00002070BD0000AE
:100A500030B585B00024009401940294039400689A
:100A60001449884224D11448C16941F48021C161EC
:100A7000C16901F480210491816941F0080181611B
:100A800080690E4D00F0080004904FF480600090E3
:100A9000022001900320039069462846FFF790FB4F
:100AA000E814CDE90004694628460294FFF788FB64
:100AB00005B030BD0048004000100240000C01406D
:100AC0002DE9F843044690F839001F4616460D46B6
:100AD000202850D1A5B19EB194F8380001284AD001
:100AE000012084F838004FF00008C4F83C80212031
:100AF00084F83900FFF75AFCA6848146E68426E094
:100B00000120BDE8F883E08C401EE084A0684B46DD
:100B1000B0F5805F4FF000024FF080012046009753
:100B200003D000F08BF9E8B90DE000F087F9C8B9FF
:100B300028882168C0F308004860206908B16D1C4E
:100B400005E0AD1C03E0216815F8010B4860E08C5E
:100B50000028D8D14B46002240212046009700F0C3
:100B60006DF908B10320CCE7202084F8390084F81F
:100B700038800020C5E70220C3E7FEE70021064ACF
:100B80000120135C401C1944C0B289B20728F8D375
:100B9000484280B2704700004400002010B504466F
:100BA000014609A000F07EF900221146162000F04F
:100BB00017F84FF4FA70FFF7F1FA22460021BDE86A
:100BC0001040032000F00CB8506C61793A20256485
:100BD0000A000000002211460C2000F001B80000BD
:100BE00010B5094CE0706171A271FFF7C7FF010AEF
:100BF000E17120722146BDE810400A224FF496733D
:100C00000248FFF75DBF00004400002064000020A0
:100C1000024600210620FFF7E3BF000010B505A043
:100C200000F040F90022BDE8104011461620FFF701
:100C3000D7BF00004D50332053746F7020210A003D
:100C400030B585B00025164801950395816941F0BE
:100C500020018161816901F020010491816941F0E5
:100C600004018161816901F004010491816941F00D
:100C7000080181618069012400F00800049040F2BD
:100C8000FF100090694602940648FFF799FACDE9F3
:100C90000045694604480294FFF792FA05B030BD5A
:100CA0000010024000080140000C0140FEE77047C0
:100CB0007047704710B50BA000F0F4F80C486421A1
:100CC0000122C0E90312002142610170417081706C
:100CD000C170027141718161016241628162C162D0
:100CE00010BD00005265736574206461746100007A
:100CF00000000020FFF760BB10B590B028216846C7
:100D0000FFF717FA14210AA8FFF713FA0220009040
:100D10000120049010200024059007946846FFF7F6
:100D2000C1FC0F20CDE90A040C940D9400210AA8FF
:100D30000E94FFF7CBFB10B010BD00000D4801680A
:100D400041F00101016041680B4A114041600168B6
:100D50000A4A11400160016821F480210160416864
:100D600021F4FE0141604FF41F0181600449C0037A
:100D700008607047001002400000FFF8FFFFF6FE19
:100D800008ED00E02DE9F041044600680169E268E1
:100D900021F44051114301612169A0680843616950
:100DA00008432168CA6841F20C639A430243CA604F
:100DB00020684169A26921F44071114341611E49D3
:100DC000206864253226884202D1FFF725FC01E025
:100DD000FFF712FC00EBC00101EB001160686FF03F
:100DE00018078000B1FBF0F2B2FBF5F2B1FBF0F3B3
:100DF0007A4303EB8202B1FBF0F306EB0212B2FB83
:100E0000F5F2B3FBF5F302F0F00202EB0312B1FBD3
:100E1000F0F3B1FBF0F0B0FBF5F0784303EB8000AA
:100E200006EB0010B0FBF5F0216800F00F00104455
:100E30008860BDE8F0810000003801402DE9F041F4
:100E4000984617460E460446069D1DE0681C1BD0BA
:100E50002DB1FFF7ABFAA0EB0800A84214D9206827
:100E6000C16821F4D071C1602068416921F001019D
:100E70004161202084F8390084F83A00002084F889
:100E800038000320BDE8F0812068006836EA0000E1
:100E900004D00020B842D9D00020F3E70120F9E7C0
:100EA000FEE700000FB4054B10B503A9044A0298F1
:100EB00000F028F810BC5DF814FB00005910000881
:100EC000600000200907090E002804DB00F1E02083
:100ED00080F80014704700F00F0000F1E02080F867
:100EE000141D704702E008C8121F08C1002AFAD179
:100EF00070477047002001E001C1121F002AFBD19A
:100F0000704700002DE9FF4F89B09B46044600253D
:100F100006E025280BD05A460B999047641C6D1C9F
:100F200020780028F5D10DB02846BDE8F08F0027C5
:100F3000B8460122474900E0074314F8013F203B2F
:100F400002FA03F00842F7D120782E2819D114F8BC
:100F5000010F47F004072A280ED06FF02F022078E7
:100F6000A0F1300109290CD808EB880102EB4101FE
:100F700000EB0108641CF2E70A98641C50F8048B2B
:100F80000A9020780028CED0642808D0692806D09E
:100F900075281ED05A460B9990476D1C58E00A9947
:100FA0004FF00A0901C90A91002802DA40422D21B6
:100FB00002E0390504D52B218DF82010012103E032
:100FC000F90704D02021F7E78A4608AE0DE000219A
:100FD000FAE70A994FF00A0901C90A91F7E7494669
:100FE000FFF7B2F8303106F8011D0028F7D1ADEB5C
:100FF000060000F12009780701D44FF00108C84528
:1010000002DDA8EB090000E000208046002706E092
:1010100008A85A46C05D0B9990476D1C7F1C574528
:10102000F6DB04E030205A460B9990476D1CB8F16E
:101030000001A8F10108F5DC05E016F8010B5A469D
:101040000B9990476D1CB9F10001A9F10109F4DC7D
:10105000641C65E70928010008490968C90706D02A
:10106000064980390968CA074FF0604101D17047CD
:1010700000BF0A68002AFBD008707047800E00E0AD
:101080001FB5FAA0FFF70EFFFFF79EF9FFF734FE3A
:10109000FFF7D6FDFB48FA49002501604FF41651D1
:1010A000C0E901150C26C560C0E904568561C5611B
:1010B000FFF79CFCFFF78EFD4FF4FA60FFF76EF828
:1010C000F14C207FFFF7A4FDC820FFF767F801204F
:1010D000FFF764FDFFF76AF9EC4F47F2305B4FF022
:1010E0000A084FF00B0940F2011A206238682064A8
:1010F0000121E748FFF754F9E071217A012906D16F
:1011000090B91E20FFF74AFD3220FFF747F8207AFA
:1011100050B9E079012807D11D20FFF73FFD3220AB
:10112000FFF73CF8FFF7C6FDE07920722179A2793C
:10113000914300D098B3206C10F0410F75D010F09F
:10114000810F73D010EA0A0F01D1E6602BE110F095
:10115000820F6CD010F0440F6AD010F0120F68D0DC
:1011600010F0240F7ED010F0220F7CD010F0420F30
:101170007AD010F0840F78D010F0180F76D010F4D9
:10118000827F74D010F0280F72D010F0480F70D00A
:1011900010F0880F6ED010F4847F6CD06AE2FFE705
:1011A000FFF704F9A0622278F2B3E16BB94B411A60
:1011B00099420CD2636AA0EB030C4EF660239C4567
:1011C00005D36062B4A0FFF76DFE242090E0B94B18
:1011D000994209D9B84B994206D2636AA0EB030C35
:1011E0004EF660239C45ECD2B44B994209D9B44BDE
:1011F000994206D2636AA0EB030C4EF660239C452D
:10120000DFD2B04B994215D9AF4B994212D2636AE3
:10121000A0EB030C4EF660239C450BD36062ABA0A1
:10122000FFF740FE132063E01AE06FE271E273E221
:1012300074E275E2AB4B994209D9AB4B994206D2A5
:10124000636AA0EB030C4EF660239C45E6D2A74BE5
:10125000994205D9616A431A4EF660218B42DDD26C
:10126000E16B09E05EE275E276E277E278E279E24C
:101270007BE27DE27EE27FE2401A9D49884209D30B
:1012800042B19B496431884204D29AA0FFF70AFE1A
:1012900020202DE09949884209D342B19749643111
:1012A000884204D296A0FFF7FDFD212020E0964958
:1012B000884209D342B194496431884204D293A050
:1012C000FFF7F0FD232013E09249884204D31AB1BE
:1012D00090499631884207D38F4988420DD362B135
:1012E0008D499631884208D28CA0FFF7DBFD222081
:1012F000FFF754FC3220FEF751FFA16AA06B091AD8
:10130000594506D3A07820B1FFF7D4FC85A0FFF79C
:10131000C9FDFFF74BF8216A401A874988420BD371
:10132000207848B90120A07184A0FFF7BBFDFFF72A
:10133000C1FCFFF73BF82062206C10F0410F2CD06D
:1013400010F0810F31D010EA0A0F04D1E660207846
:1013500048B30B20D7E110F0820F2DD010F0440FCE
:101360003DD010F0120F63D010F0240F76D010F0A3
:10137000220F74D010F0420F72D010F0840F70D092
:1013800010F4827F6ED010F0480F6CD010F0880FF0
:101390006AD010F4847F68D06CE1C4F80C802078A7
:1013A00008B10D20AFE1C82062E1C4F80C902078AC
:1013B0000028F8D00C20A6E1E560207868B1FEF79F
:1013C000F5FF216B411A41F28830814202D3182087
:1013D000FFF7E4FBFEF7EAFF2063962048E10620D2
:1013E000E060207861780843DDD10120A070FEF72D
:1013F000DDFFA06320690C2810D004DC012807D091
:10140000022811D106E00D280AD00E280CD109E0DF
:10141000032000E00420FFF7C1FB05E00520FAE708
:101420000620F8E72561A5702069401C2061BAE715
:10143000FEF7BCFF60626063E0622063E063072048
:10144000E06020780028AED10720FFF7A7FB01203D
:101450002070206160616570A570A4E778E0A6E067
:10146000C8E0DDE011E13AE140E146E14170706C35
:1014700069636174696F6E2073746172740A00002D
:1014800000480040640000200000002008080140DF
:10149000000C014080A90300316D2072656D696EFA
:1014A000642073706565642075702F646F776E0AB1
:1014B00000000000407E050040D10C0000A60E0098
:1014C00020651100E039130000F91500316D20721C
:1014D000656D696E6420737065656420646F776EF6
:1014E0000A000000C0CD1700E08C1A00A0611C00AB
:1014F000E093040042756F6320340A00A0BB0D0026
:1015000042756F6320350A00804F120042756F6389
:1015100020360A0060E3160040771B0042756F63B7
:1015200020370A0070726F6772616D2074696D6593
:101530006F75740A00000000C0270900476F20740F
:101540006F20736C656570206D6F64650A00000024
:101550000820E0600120E070C820FEF71FFEE07860
:1015600010B1A069401CA061207860B1FEF71EFF99
:10157000E16B411A594503D90220FFF70FFB0FE039
:10158000FFF74CFB0CE0A0690A286FD008E025713A
:10159000122002E0012020711120FFF7FFFAA5615F
:1015A00025700120206160616570A57062E00920EE
:1015B000E0602078A17808437FF4C8AD0120607016
:1015C0006069012806D0022806D0032808D0042824
:1015D0000CD107E0082000E00920FFF7DFFA05E062
:1015E0000A20FAE7FFF71AFB656165706069401C25
:1015F0006061D8E60120E0609620FEF7CFFD2078FC
:1016000098B3FEF7D3FE216B411A41F28830814234
:1016100002D31920FFF7C2FAFEF7C8FE206329E0C3
:101620000420E060E069801CE061142801DB1420E4
:10163000E061A078617808432178084309D1207FD0
:10164000FFF7E6FA6420FEF7A9FD59A0E169FFF76C
:1016500029FC207858B1FEF7A9FEE16A411A41F24F
:101660008830814237D3152033E003E06DE032202B
:10167000FEF794FDE06864283FF438AD082800D0F8
:10168000E570E07901287AD07EE00520E060E0692D
:10169000801EE061002800DCE561A07861780843E5
:1016A0002178084309D1207FFFF7B2FA6420FEF7C2
:1016B00075FD3FA0E169FFF7F5FB20780028D6D043
:1016C000FEF774FEE16A411A41F28830814202D38A
:1016D0001620FFF763FAFEF769FEE062C7E70D2008
:1016E000E0602078002884D010200CE00E20E0601C
:1016F00020780028F7D00F2005E00F20E060207848
:101700000028F0D00E20FFF749FA4CE6C4F80C8010
:1017100049E6C4F80C9046E6E5605EE606202CE05B
:1017200007202AE00820E0600120E070FFF776FA49
:10173000C820FEF733FDE07810B1A069401CA0611D
:10174000207800283FF41FAF16E7207900283FF4E7
:1017500021AF1CE7092010E0012007E0042005E08C
:10176000102003E0052001E009E01120E06034E6EC
:101770000D2002E00E2000E00F20E06013E61A20AA
:10178000FFF70CFAFFF796FAFEF710FE2062A5713C
:10179000E17960782279CDE90020CDE90251A37882
:1017A00022780648E168FFF77DFB6420E0609DE455
:1017B000566F6C3A2025640A00000000D817000814
:1017C00000000000000000000102030406070809F1
:1017D00000000000010203044B65793A20256420D3
:1017E0002D2D20497353746172743A202564202D85
:1017F0002D2049734D6F64653A202564202D2D20DE
:1018000069734F6E3A202564202D2D20697353652E
:101810007475703A202564202D2D206973536C65F2
:1018200065703A202564202D2D20536166654B6537
:10183000793A2025640A00005818000800000020AA
:1018400064000000E40E0008BC18000864000020DA
:1018500044040000F40E0008000000000100000035
:101860000000000064000000010000000100000012
:10187000000000000F000000000000000000000059
:101880000000000000000000000000000000000058
:101890000000000000000000000000007EFF0600C5
:1018A0000100000000EF0000010000001000000037
:0C18B000000000000024F4000000000014
:04000005080000ED02
:00000001FF
