:020000040800F2
:10000000A804002001010008AF0C00087B0B0008C9
:10001000AD0C000899010008910E000800000000D6
:10002000000000000000000000000000B30C000809
:100030009B01000800000000B10C0008E50C00085E
:100040001B0100081B0100081B0100081B01000820
:100050001B0100081B0100081B0100081B01000810
:100060001B0100081B0100081B0100081B01000800
:100070001B0100081B0100081B0100081B010008F0
:100080001B0100081B0100081B0100081B010008E0
:100090001B0100081B0100081B0100081B010008D0
:1000A0001B0100081B0100081B0100081B010008C0
:1000B0001B0100081B0100081B0100081B010008B0
:1000C0001B0100081B0100081B0100081B010008A0
:1000D0001B0100081B0100081B0100081B01000890
:1000E0001B0100081B0100081B010008DFF80CD0F1
:1000F00000F040F80048004771100008A8040020F4
:100100000648804706480047FEE7FEE7FEE7FEE7B1
:10011000FEE7FEE7FEE7FEE7FEE7FEE72D0D00083F
:10012000ED000008D2B201E000F8012B491EFBD21D
:1001300070470022F6E710B513460A4604461946F2
:10014000FFF7F0FF204610BD30B50B4601460020FA
:100150002022012409E021FA02F59D4205D303FA89
:1001600002F5491B04FA02F52844151EA2F101020A
:10017000F1DC30BD064C074D06E0E06840F00103BD
:1001800094E8070098471034AC42F6D3FFF7B2FF6B
:1001900080170008A0170008FEE7704770B50446F6
:1001A00000F004F90546601C02D0044800780444BD
:1001B00000F0FCF8401BA042FAD370BD50000020B4
:1001C0002DE9F84FDFF8B891002409F1040A0AF18B
:1001D000040B23460F270BF1040EC9E00125A540AF
:1001E0002A40AA427DD1674ED1F804C0ACEB060884
:1001F000B44532D014DCBCF1030F3AD009DCBCF1B9
:10020000000F2AD0BCF1010F1CD0BCF1020F31D17C
:100210001DE0BCF1110F17D0BCF1120F2AD119E06B
:10022000B8F5881F19D006DCB8F5803F15D0B8F5B1
:10023000801F1FD111E0B8F5001F0ED0B8F5041FC4
:1002400018D10AE0CB6815E0CB681B1D12E0CB6823
:1002500008330FE0CB680C330CE08B682BB1012B1B
:100260004FF0080303D0456104E0042302E0056178
:1002700000E00023FF2A01D8064601E000F1040651
:100280004FEA840501D9A5F12005D6F8008007FAC8
:1002900005FC28EA0C0803FA05F548EA0508C6F843
:1002A00000804D68ED0062D5374DAE6946F001061D
:1002B000AE61AD6924F0030605F001050095334DEC
:1002C00006EB050CDCF80850A607360F07FA06F80F
:1002D00025EA0805DFF8B880404503D14FF0000853
:1002E00017E044E0DFF8AC80404502D14FF0010850
:1002F0000FE0DFF8A480404502D14FF0020808E08B
:10030000DFF89880404502D14FF0030801E04FF03C
:10031000040808FA06F848EA0508CCF808804D6891
:10032000D9F80060ED034D4601D5164300E0964331
:100330002E604D68DAF80060AD03554601D51643CE
:1003400000E096432E604D68DBF80060ED025D46EC
:1003500001D5164300E096432E604D68DEF800603C
:10036000AD02754601D5164300E096432E60641C2D
:100370000D682A46E5407FF431AFBDE8F88F0000F4
:100380000004014000001110001002400000014074
:1003900000080140000C0140001001400014014021
:1003A0008068084000D00120704700000148806844
:1003B0007047000050000020024881680278114414
:1003C0008160704750000020074810B5016841F077
:1003D00010010160032000F067F8002000F006F82B
:1003E00000F024F8002010BD0020024070B50D4D33
:1003F00004464FF47A712878B1FBF0F00A49096895
:10040000B1FBF0F000F0DEFA48B9102C07D2002260
:100410002146501E00F028F800206C6070BD0120BD
:1004200070BD0000500000205C0000200C4808B5A2
:10043000816941F001018161816901F0010100914F
:10044000C16941F08051C161C06900F080500090E5
:100450000448416821F0E06141F00071416008BD4D
:100460000010024000000140F0B40E4B1B680C4627
:10047000C3F30223C3F10705042D00D90425191D78
:10048000072901D2002300E0DB1E012606FA05F150
:10049000491E214099409E40761E16403143F0BCD3
:1004A00000F008BD0CED00E0064900F00702086806
:1004B0004FF6FF03184040EA0220034A1043086049
:1004C000704700000CED00E00000FA052DE9F04750
:1004D0000F46050061D0434E306800F00700B84277
:1004E00009D2306820F0070038433060306800F0EF
:1004F0000700B84251D128683B4C810712D540070C
:1005000003D5606840F4E06060602878000703D598
:10051000606840F4605060606068A96820F0F00096
:10052000084360602878C00728D06868012810D088
:100530002168022810D0890700292EDA616821F08D
:10054000030101436160FFF731FF804641F28839C2
:100550000DE021688903EFE78901EDE7FFF726FF4A
:10056000A0EB0801494502D90320BDE8F087606887
:10057000696800F00C00B0EB810FEFD1306800F03B
:100580000700B8420BD9306820F0070038433060CC
:10059000306800F00700B84201D00120E5E7287874
:1005A000400705D56068E96820F4E06008436060B2
:1005B0002878000706D56068296920F4605040EA71
:1005C000C100606000F038F86168084AC1F30311A7
:1005D000515CC8400649086006480068FFF706FFFE
:1005E0000020C2E700200240001002400817000867
:1005F0005C00002054000020044805490068496858
:10060000044AC1F30221515CC84070475C000020DD
:10061000001002401817000804480549006849689E
:10062000044AC1F3C221515CC84070475C000020FD
:10063000001002401817000812A185B00FC98DE8FC
:100640000F0014A0144A006804905168134801F088
:100650000C03042B10D0082B0ED1C1F38343C90324
:100660001DF803000AD5516804AAC1F34041515C4A
:100670000A4A5043B0FBF1F005B0704708494843BF
:10068000FAE7000002030405060708090A0B0C0D2F
:100690000E0F1010010200000010024000127A003C
:1006A00000093D002DE9F84F040070D02078C04DBE
:1006B000C00749D06868C0F38100012807D0686886
:1006C000C0F38100022809D16868C00306D52868F4
:1006D000800339D560680028E7D035E06068B0F560
:1006E000803F0BD010B1B0F5A02F11D0286820F4B6
:1006F00080302860286820F4802002E0286840F4D8
:1007000080302860606890B1FFF750FE06460AE02E
:10071000286840F480202860F0E700BFFFF746FE1D
:10072000801B642873D828688003F7D50CE0FFF796
:100730003DFE064605E000BFFFF738FE801B64283B
:10074000F0D828688003F7D420789A4E80074FF0BD
:1007500001094FF0000839D5686810F00C0F07D078
:100760006868C0F38100022809D16868C00306D414
:100770002868800714D52069012808D110E0206975
:10078000B0B1C6F80090FFF711FE074605E00AE198
:10079000FFF70CFEC01B0228C4D828688007F7D5D5
:1007A0002868616920F0F80040EAC10028600DE087
:1007B000C6F80080FFF7FAFD074604E0FFF7F6FDF4
:1007C000C01B022823D828688007F7D420780007A8
:1007D0002CD57948A169D9B1C0F80090FFF7E6FDA2
:1007E000074604E0FFF7E2FDC01B02280FD8686A45
:1007F0008007F7D571484FF4FA510068B0FBF1F06B
:10080000009000BF0098411E0091FAD20EE080E0F7
:10081000C0F80080FFF7CAFD074604E0FFF7C6FDF9
:10082000C01B022875D8686A8007F7D42078400773
:1008300060D5E8690027C00008D4E86940F080501E
:10084000E861E869012700F0805000905C48016889
:10085000C90513D40168834641F480710160FFF734
:10086000A5FD824606E000BFFFF7A0FDA0EB0A0051
:1008700064284ED8DBF80000C005F5D5E0680128F3
:100880000AD008B1052813D0286A20F00100286298
:10089000286A20F0040002E0286A40F00100286283
:1008A000E06841F2883B98B1FFF780FD82460BE09B
:1008B000286A40F004002862EEE700BFFFF776FDEB
:1008C000A0EB0A0159455AD8286A8007F6D50CE0F2
:1008D000FFF76CFD824605E0FFF768FDA0EB0A011B
:1008E00059454CD8286A8007F6D41FB1E86920F032
:1008F0008050E861E06988B36968C1F38101022929
:1009000044D00228C6F8608004D0FFF74FFD0446AB
:1009100038E034E0FFF74AFD074604E0FFF746FD04
:10092000C01B02282BD828688001F7D4206AB0F5B4
:10093000803F05D16868A16820F4003008436860F2
:10094000D4E908010843696821F474110843686018
:10095000C6F86090FFF72AFD044606E025E000BFD8
:10096000FFF724FD001B022809D828688001F7D56D
:100970001BE000BFFFF71AFD001B022802D903206D
:10098000BDE8F88F28688001F4D40EE00128F7D084
:100990006868226A00F48031914204D1616A00F4EF
:1009A0007010884201D00120EAE70020E8E700004B
:1009B0000010024000004242800442425C000020DD
:1009C0000070004010B5401EB0F1807F01D30120BF
:1009D00010BD4FF0E02460610F21601700F06AFA4B
:1009E0000020A06107202061002010BD70B5040028
:1009F00004D094F83900002510B106E0012070BD44
:100A000084F83850204600F023F8242084F8390078
:100A10002068C16821F40051C160204600F0AAF9A5
:100A20002068016921F4904101612068416921F049
:100A30002A0141612068C16841F40051C160E56349
:100A4000202084F8390084F83A00002070BD0000AE
:100A500030B585B00024009401940294039400689A
:100A60001449884224D11448C16941F48021C161EC
:100A7000C16901F480210491816941F0080181611B
:100A800080690E4D00F0080004904FF480600090E3
:100A9000022001900320039069462846FFF790FB4F
:100AA000E814CDE90004694628460294FFF788FB64
:100AB00005B030BD0048004000100240000C01406D
:100AC0002DE9F843044690F839001F4616460D46B6
:100AD000202850D1A5B19EB194F8380001284AD001
:100AE000012084F838004FF00008C4F83C80212031
:100AF00084F83900FFF75AFCA6848146E68426E094
:100B00000120BDE8F883E08C401EE084A0684B46DD
:100B1000B0F5805F4FF000024FF080012046009753
:100B200003D000F083F9E8B90DE000F07FF9C8B90F
:100B300028882168C0F308004860206908B16D1C4E
:100B400005E0AD1C03E0216815F8010B4860E08C5E
:100B50000028D8D14B46002240212046009700F0C3
:100B600065F908B10320CCE7202084F8390084F827
:100B700038800020C5E70220C3E7FEE70021064ACF
:100B80000120135C401C1944C0B289B20728F8D375
:100B9000484280B2704700004400002010B504466F
:100BA000014609A000F076F900221146162000F057
:100BB00017F84FF4FA70FFF7F1FA22460021BDE86A
:100BC0001040032000F00CB8506C61793A20256485
:100BD0000A000000002211460C2000F001B80000BD
:100BE00010B5094CE0706171A271FFF7C7FF010AEF
:100BF000E17120722146BDE810400A224FF496733D
:100C00000248FFF75DBF00004400002064000020A0
:100C1000024600210620FFF7E3BF000010B505A043
:100C200000F038F90022BDE8104011461620FFF709
:100C3000D7BF00004D50332053746F7020210A003D
:100C400030B585B00025164801950395816941F0BE
:100C500020018161816901F020010491816941F0E5
:100C600004018161816901F004010491816941F00D
:100C7000080181618069012400F00800049040F2BD
:100C8000FF100090694602940648FFF799FACDE9F3
:100C90000045694604480294FFF792FA05B030BD5A
:100CA0000010024000080140000C0140FEE77047C0
:100CB000704770470A4864210122C0E903120021ED
:100CC0004261017041708170C170027141710F23E6
:100CD000C0E90613016241628162C162C27170475C
:100CE00000000020FFF768BB10B590B028216846CF
:100CF000FFF71FFA14210AA8FFF71BFA0220009041
:100D00000120049010200024059007946846FFF706
:100D1000C9FC0F20CDE90A040C940D9400210AA807
:100D20000E94FFF7D3FB10B010BD00000D48016812
:100D300041F00101016041680B4A114041600168C6
:100D40000A4A11400160016821F480210160416874
:100D500021F4FE0141604FF41F0181600449C0038A
:100D600008607047001002400000FFF8FFFFF6FE29
:100D700008ED00E02DE9F041044600680169E268F1
:100D800021F44051114301612169A0680843616960
:100D900008432168CA6841F20C639A430243CA605F
:100DA00020684169A26921F44071114341611E49E3
:100DB000206864253226884202D1FFF72DFC01E02D
:100DC000FFF71AFC00EBC00101EB001160686FF047
:100DD00018078000B1FBF0F2B2FBF5F2B1FBF0F3C3
:100DE0007A4303EB8202B1FBF0F306EB0212B2FB93
:100DF000F5F2B3FBF5F302F0F00202EB0312B1FBE4
:100E0000F0F3B1FBF0F0B0FBF5F0784303EB8000BA
:100E100006EB0010B0FBF5F0216800F00F00104465
:100E20008860BDE8F0810000003801402DE9F04104
:100E3000984617460E460446069D1DE0681C1BD0CA
:100E40002DB1FFF7B3FAA0EB0800A84214D920682F
:100E5000C16821F4D071C1602068416921F00101AD
:100E60004161202084F8390084F83A00002084F899
:100E700038000320BDE8F0812068006836EA0000F1
:100E800004D00020B842D9D00020F3E70120F9E7D0
:100E9000FEE700000FB4054B10B503A9044A029801
:100EA00000F028F810BC5DF814FB000049100008A1
:100EB000600000200907090E002804DB00F1E02093
:100EC00080F80014704700F00F0000F1E02080F877
:100ED000141D704702E008C8121F08C1002AFAD189
:100EE00070477047002001E001C1121F002AFBD1AA
:100EF000704700002DE9FF4F89B09B46044600254E
:100F000006E025280BD05A460B999047641C6D1CAF
:100F100020780028F5D10DB02846BDE8F08F0027D5
:100F2000B8460122474900E0074314F8013F203B3F
:100F300002FA03F00842F7D120782E2819D114F8CC
:100F4000010F47F004072A280ED06FF02F022078F7
:100F5000A0F1300109290CD808EB880102EB41010E
:100F600000EB0108641CF2E70A98641C50F8048B3B
:100F70000A9020780028CED0642808D0692806D0AE
:100F800075281ED05A460B9990476D1C58E00A9957
:100F90004FF00A0901C90A91002802DA40422D21C6
:100FA00002E0390504D52B218DF82010012103E042
:100FB000F90704D02021F7E78A4608AE0DE00021AA
:100FC000FAE70A994FF00A0901C90A91F7E7494679
:100FD000FFF7BAF8303106F8011D0028F7D1ADEB64
:100FE000060000F12009780701D44FF00108C84538
:100FF00002DDA8EB090000E000208046002706E0A3
:1010000008A85A46C05D0B9990476D1C7F1C574538
:10101000F6DB04E030205A460B9990476D1CB8F17E
:101020000001A8F10108F5DC05E016F8010B5A46AD
:101030000B9990476D1CB9F10001A9F10109F4DC8D
:10104000641C65E70928010008490968C90706D03A
:10105000064980390968CA074FF0604101D17047DD
:1010600000BF0A68002AFBD008707047800E00E0BD
:101070001FB5F7A0FFF70EFFFFF7A6F9FFF734FE45
:10108000FFF7DEFDF848F749002501604FF41651DF
:10109000C0E901150C26C560C0E904568561C5612B
:1010A000FFF7A4FCFFF796FD4FF4FA60FFF776F820
:1010B000EE4C207FFFF7ACFDC820FFF76FF8012052
:1010C000FFF76CFDFFF772F9E94F47F2305B4FF025
:1010D0000A084FF00B0A40F20119206238682064B8
:1010E0000121E448FFF75CF9E071217A012903D17D
:1010F00050B91E20FFF752FD207A28B9E079012867
:1011000002D11D20FFF74AFDE07920722179A279F2
:10111000914300D0C8B3206C10F0410F7DD010F087
:10112000810F7BD010EA090F01D1E660E4E010F0F6
:10113000120F74D010F0220F72D010F0420F70D046
:1011400010F0820F6ED010F4817F6CD010F0140F6D
:101150006AD010F0240F68D010F0440F66D010F061
:10116000840F7CD010F0180F7AD010F4827F78D0E2
:1011700010F0280F76D010F0480F74D010F0880FC0
:1011800072D010F4847F70D004E2FFE7FFF70EF90D
:10119000A062E16B401A44F6206188420BD32178AB
:1011A00049B144F68461884205D22020FFF7F6FC5D
:1011B0006420FEF7F3FFE16BA06A401A4CF2503155
:1011C00088420BD3217849B14CF2B431884205D220
:1011D0002120FFF7E3FC6420FEF7E0FFE16BA06A4B
:1011E000401AA54988420BD3217849B1A2496431FC
:1011F000884205D22220FFF7D1FC6420FEF7CEFF03
:10120000A16BA06A411A594506D3A07820B1FFF717
:1012100051FD9AA0FFF73EFE09E01AE21CE21EE231
:101220001FE220E221E239E23AE2C3E0C3E0FFF745
:10123000BDF8216A401A964988420BD3207848B9F4
:101240000120A07193A0FFF725FEFFF733FDFFF704
:10125000ADF82062206C10F0410F47D006E021E28B
:1012600022E223E224E226E227E228E210F0810FC4
:1012700044D010EA090F04D1E6602078A8B30B200F
:10128000E4E110F0120F4DD010F0110F4AD010F021
:10129000220F4FD010F0420F7AD010F0820F6DD095
:1012A00010F4817F6BD010F0140F69D010F0210F73
:1012B00067D010F0240F7DD010F0440F7BD010F0D9
:1012C000840F79D010F0180F77D010F4827F75D08A
:1012D00010F0280F73D010F0480F71D010F0880F65
:1012E0006FD010F4847F6DD054E105E0C4F80C8019
:1012F000207808B10D20A9E1C82049E1C4F80CA06C
:1013000020780028F8D00C20A0E100BFFFF74EF8AD
:10131000216B411A41F28830814271D31820FFE0DD
:10132000962035E1FFF742F8E560606220780028FA
:10133000F6D0EBE70620E060207861780843DBD147
:101340000120A070FFF732F8A06320690C2810D0AC
:1013500004DC012807D0022816D106E00D280AD0A7
:101360000E2811D10EE0032000E00420FFF716FC48
:101370000AE00520FAE70620F8E709E028E054E053
:10138000A2E0BBE02561A5702069401C2061B3E7A5
:10139000FFF70CF860626063E0622063E06307209F
:1013A000E06020780028A7D10720FFF7F7FB012095
:1013B000207008E0BAE0BBE0BCE0F6E0FBE02AE128
:1013C0002FE136E13CE1206160616570A57093E733
:1013D0000820E0600120E070C820FEF7DFFEE07822
:1013E00010B1A069401CA061207850B1FEF7DEFF6B
:1013F000E16B411A594511D90220FFF7CFFB0DE0EF
:1014000090E0A0690A2878D008E02571122002E057
:10141000012020711120FFF7C1FBA561257001207B
:10142000206160616570A570B4E00920E0602078FB
:10143000A1780843ABD1012060706069012833D0E6
:10144000022833D0032835D0042839D134E00000F5
:101450004170706C69636174696F6E20737461723E
:10146000740A0000004800406400002000000020D2
:1014700008080140000C01408038010070726F675D
:1014800072616D2074696D656F75740A00000000EB
:10149000C0270900476F20746F20736C656570204A
:1014A0006D6F64650A000000082000E00920FFF766
:1014B00075FB05E00A20FAE7FFF7B0FB6561657090
:1014C0006069401C606117E7FEF770FF60620120F1
:1014D000E0609620FEF762FE2078E8B3FEF766FF34
:1014E000216B411A41F28830814202D31920FFF763
:1014F00055FBFEF75BFF20634CE0CAE0FEF756FFAA
:1015000060620120E060207800283FF409AFFEF718
:101510004DFF216B411A41F28830814202D31920DC
:10152000FFF73CFBFEF742FF2063F9E60220C0E034
:101530000320BEE0FEF73AFF60620420E060E0694D
:10154000401DE0611E2801DB1E20E061A07861786B
:1015500008432178084300E01CE00CD1207FFFF70E
:1015600057FB6420FEF71AFE1420FFF717FB62A05A
:10157000E169FFF78FFC207848B1FEF717FFE16AB9
:10158000411A41F28830814241D315203DE032209A
:10159000FEF704FEE06864283FF4A0AD082800D000
:1015A000E570E079012873D091E0FEF7FFFE6062FC
:1015B0001020E060DFE7FEF7F9FE60620520E060E2
:1015C000E069401FE061002800DCE561A0786178F7
:1015D0000843217808430CD1207FFFF719FB6420D2
:1015E000FEF7DCFD1720FFF7D9FA43A0E169FFF70A
:1015F00051FC20780028CAD0FEF7D8FEE16A411AD3
:1016000041F28830814202D31620FFF7C7FAFEF775
:10161000CDFEE062BBE7FEF7C9FE60621120E0602C
:10162000E7E70D20E060207800283FF47FAD102030
:101630000CE00E20E06020780028F6D00F2005E0B6
:101640000F20E06020780028EFD00E20FFF7A6FAE8
:1016500052E6C4F80C804FE6C4F80CA04CE6E560F6
:101660005EE606202CE007202AE00820E06001204A
:10167000E070FFF7D3FAC820FEF790FDE07810B1D4
:10168000A069401CA061207800283FF4BAAEB3E600
:1016900018E0207900283FF4BBAEB6E609200FE041
:1016A000012006E0042004E0102002E0052000E014
:1016B0001120E06034E60D2002E00E2000E00F2053
:1016C000E06019E61A20FFF769FAFFF7F3FAFEF770
:1016D0006DFE2062A571E07961782279CDE9025032
:1016E000CDE90021A37822780648E168FFF7D2FB14
:1016F0006420E060F2E40000566F6C3A2025640A32
:10170000000000002017000800000000000000009A
:101710000102030406070809000000000102030497
:101720004B65793A202564202D2D2049735374612F
:1017300072743A202564202D2D2049734D6F646505
:101740003A202564202D2D2069734F6E3A202564A0
:10175000202D2D20697353657475703A20256420FF
:101760002D2D206973536C6565703A202564202DFA
:101770002D20536166654B65793A2025640A000087
:10178000A01700080000002064000000D40E00082C
:10179000041800086400002044040000E40E00085F
:1017A00000000000010000000000000064000000D4
:1017B0000100000001000000000000000F00000018
:1017C0000000000000000000000000000000000019
:1017D0000000000000000000000000000000000009
:1017E000000000007EFF06000100000000EF000086
:1017F0000100000010000000000000000024F400C0
:0418000000000000E4
:04000005080000ED02
:00000001FF
