:020000040800F2
:10000000A804002001010008AF0C00087B0B0008C9
:10001000AD0C0008990100088D0E000800000000DA
:10002000000000000000000000000000B30C000809
:100030009B01000800000000B10C0008E10C000862
:100040001B0100081B0100081B0100081B01000820
:100050001B0100081B0100081B0100081B01000810
:100060001B0100081B0100081B0100081B01000800
:100070001B0100081B0100081B0100081B010008F0
:100080001B0100081B0100081B0100081B010008E0
:100090001B0100081B0100081B0100081B010008D0
:1000A0001B0100081B0100081B0100081B010008C0
:1000B0001B0100081B0100081B0100081B010008B0
:1000C0001B0100081B0100081B0100081B010008A0
:1000D0001B0100081B0100081B0100081B01000890
:1000E0001B0100081B0100081B010008DFF80CD0F1
:1000F00000F040F8004800476D100008A8040020F8
:100100000648804706480047FEE7FEE7FEE7FEE7B1
:10011000FEE7FEE7FEE7FEE7FEE7FEE7290D000843
:10012000ED000008D2B201E000F8012B491EFBD21D
:1001300070470022F6E710B513460A4604461946F2
:10014000FFF7F0FF204610BD30B50B4601460020FA
:100150002022012409E021FA02F59D4205D303FA89
:1001600002F5491B04FA02F52844151EA2F101020A
:10017000F1DC30BD064C074D06E0E06840F00103BD
:1001800094E8070098471034AC42F6D3FFF7B2FF6B
:1001900088180008A8180008FEE7704770B50446E4
:1001A00000F004F90546601C02D0044800780444BD
:1001B00000F0FCF8401BA042FAD370BD50000020B4
:1001C0002DE9F84FDFF8B891002409F1040A0AF18B
:1001D000040B23460F270BF1040EC9E00125A540AF
:1001E0002A40AA427DD1674ED1F804C0ACEB060884
:1001F000B44532D014DCBCF1030F3AD009DCBCF1B9
:10020000000F2AD0BCF1010F1CD0BCF1020F31D17C
:100210001DE0BCF1110F17D0BCF1120F2AD119E06B
:10022000B8F5881F19D006DCB8F5803F15D0B8F5B1
:10023000801F1FD111E0B8F5001F0ED0B8F5041FC4
:1002400018D10AE0CB6815E0CB681B1D12E0CB6823
:1002500008330FE0CB680C330CE08B682BB1012B1B
:100260004FF0080303D0456104E0042302E0056178
:1002700000E00023FF2A01D8064601E000F1040651
:100280004FEA840501D9A5F12005D6F8008007FAC8
:1002900005FC28EA0C0803FA05F548EA0508C6F843
:1002A00000804D68ED0062D5374DAE6946F001061D
:1002B000AE61AD6924F0030605F001050095334DEC
:1002C00006EB050CDCF80850A607360F07FA06F80F
:1002D00025EA0805DFF8B880404503D14FF0000853
:1002E00017E044E0DFF8AC80404502D14FF0010850
:1002F0000FE0DFF8A480404502D14FF0020808E08B
:10030000DFF89880404502D14FF0030801E04FF03C
:10031000040808FA06F848EA0508CCF808804D6891
:10032000D9F80060ED034D4601D5164300E0964331
:100330002E604D68DAF80060AD03554601D51643CE
:1003400000E096432E604D68DBF80060ED025D46EC
:1003500001D5164300E096432E604D68DEF800603C
:10036000AD02754601D5164300E096432E60641C2D
:100370000D682A46E5407FF431AFBDE8F88F0000F4
:100380000004014000001110001002400000014074
:1003900000080140000C0140001001400014014021
:1003A0008068084000D00120704700000148806844
:1003B0007047000050000020024881680278114414
:1003C0008160704750000020074810B5016841F077
:1003D00010010160032000F067F8002000F006F82B
:1003E00000F024F8002010BD0020024070B50D4D33
:1003F00004464FF47A712878B1FBF0F00A49096895
:10040000B1FBF0F000F0DEFA48B9102C07D2002260
:100410002146501E00F028F800206C6070BD0120BD
:1004200070BD0000500000205C0000200C4808B5A2
:10043000816941F001018161816901F0010100914F
:10044000C16941F08051C161C06900F080500090E5
:100450000448416821F0E06141F00071416008BD4D
:100460000010024000000140F0B40E4B1B680C4627
:10047000C3F30223C3F10705042D00D90425191D78
:10048000072901D2002300E0DB1E012606FA05F150
:10049000491E214099409E40761E16403143F0BCD3
:1004A00000F006BD0CED00E0064900F00702086808
:1004B0004FF6FF03184040EA0220034A1043086049
:1004C000704700000CED00E00000FA052DE9F04750
:1004D0000F46050061D0434E306800F00700B84277
:1004E00009D2306820F0070038433060306800F0EF
:1004F0000700B84251D128683B4C810712D540070C
:1005000003D5606840F4E06060602878000703D598
:10051000606840F4605060606068A96820F0F00096
:10052000084360602878C00728D06868012810D088
:100530002168022810D0890700292EDA616821F08D
:10054000030101436160FFF731FF804641F28839C2
:100550000DE021688903EFE78901EDE7FFF726FF4A
:10056000A0EB0801494502D90320BDE8F087606887
:10057000696800F00C00B0EB810FEFD1306800F03B
:100580000700B8420BD9306820F0070038433060CC
:10059000306800F00700B84201D00120E5E7287874
:1005A000400705D56068E96820F4E06008436060B2
:1005B0002878000706D56068296920F4605040EA71
:1005C000C100606000F038F86168084AC1F30311A7
:1005D000515CC8400649086006480068FFF706FFFE
:1005E0000020C2E70020024000100240101800085E
:1005F0005C00002054000020044805490068496858
:10060000044AC1F30221515CC84070475C000020DD
:100610000010024020180008044805490068496895
:10062000044AC1F3C221515CC84070475C000020FD
:10063000001002402018000812A185B00FC98DE8F3
:100640000F0014A0144A006804905168134801F088
:100650000C03042B10D0082B0ED1C1F38343C90324
:100660001DF803000AD5516804AAC1F34041515C4A
:100670000A4A5043B0FBF1F005B0704708494843BF
:10068000FAE7000002030405060708090A0B0C0D2F
:100690000E0F1010010200000010024000127A003C
:1006A00000093D002DE9F84F040070D02078C04DBE
:1006B000C00749D06868C0F38100012807D0686886
:1006C000C0F38100022809D16868C00306D52868F4
:1006D000800339D560680028E7D035E06068B0F560
:1006E000803F0BD010B1B0F5A02F11D0286820F4B6
:1006F00080302860286820F4802002E0286840F4D8
:1007000080302860606890B1FFF750FE06460AE02E
:10071000286840F480202860F0E700BFFFF746FE1D
:10072000801B642873D828688003F7D50CE0FFF796
:100730003DFE064605E000BFFFF738FE801B64283B
:10074000F0D828688003F7D420789A4E80074FF0BD
:1007500001094FF0000839D5686810F00C0F07D078
:100760006868C0F38100022809D16868C00306D414
:100770002868800714D52069012808D110E0206975
:10078000B0B1C6F80090FFF711FE074605E00AE198
:10079000FFF70CFEC01B0228C4D828688007F7D5D5
:1007A0002868616920F0F80040EAC10028600DE087
:1007B000C6F80080FFF7FAFD074604E0FFF7F6FDF4
:1007C000C01B022823D828688007F7D420780007A8
:1007D0002CD57948A169D9B1C0F80090FFF7E6FDA2
:1007E000074604E0FFF7E2FDC01B02280FD8686A45
:1007F0008007F7D571484FF4FA510068B0FBF1F06B
:10080000009000BF0098411E0091FAD20EE080E0F7
:10081000C0F80080FFF7CAFD074604E0FFF7C6FDF9
:10082000C01B022875D8686A8007F7D42078400773
:1008300060D5E8690027C00008D4E86940F080501E
:10084000E861E869012700F0805000905C48016889
:10085000C90513D40168834641F480710160FFF734
:10086000A5FD824606E000BFFFF7A0FDA0EB0A0051
:1008700064284ED8DBF80000C005F5D5E0680128F3
:100880000AD008B1052813D0286A20F00100286298
:10089000286A20F0040002E0286A40F00100286283
:1008A000E06841F2883B98B1FFF780FD82460BE09B
:1008B000286A40F004002862EEE700BFFFF776FDEB
:1008C000A0EB0A0159455AD8286A8007F6D50CE0F2
:1008D000FFF76CFD824605E0FFF768FDA0EB0A011B
:1008E00059454CD8286A8007F6D41FB1E86920F032
:1008F0008050E861E06988B36968C1F38101022929
:1009000044D00228C6F8608004D0FFF74FFD0446AB
:1009100038E034E0FFF74AFD074604E0FFF746FD04
:10092000C01B02282BD828688001F7D4206AB0F5B4
:10093000803F05D16868A16820F4003008436860F2
:10094000D4E908010843696821F474110843686018
:10095000C6F86090FFF72AFD044606E025E000BFD8
:10096000FFF724FD001B022809D828688001F7D56D
:100970001BE000BFFFF71AFD001B022802D903206D
:10098000BDE8F88F28688001F4D40EE00128F7D084
:100990006868226A00F48031914204D1616A00F4EF
:1009A0007010884201D00120EAE70020E8E700004B
:1009B0000010024000004242800442425C000020DD
:1009C0000070004010B5401EB0F1807F01D30120BF
:1009D00010BD4FF0E02460610F21601700F068FA4D
:1009E0000020A06107202061002010BD70B5040028
:1009F00004D094F83900002510B106E0012070BD44
:100A000084F83850204600F023F8242084F8390078
:100A10002068C16821F40051C160204600F0A8F9A7
:100A20002068016921F4904101612068416921F049
:100A30002A0141612068C16841F40051C160E56349
:100A4000202084F8390084F83A00002070BD0000AE
:100A500030B585B00024009401940294039400689A
:100A60001449884224D11448C16941F48021C161EC
:100A7000C16901F480210491816941F0080181611B
:100A800080690E4D00F0080004904FF480600090E3
:100A9000022001900320039069462846FFF790FB4F
:100AA000E814CDE90004694628460294FFF788FB64
:100AB00005B030BD0048004000100240000C01406D
:100AC0002DE9F843044690F839001F4616460D46B6
:100AD000202850D1A5B19EB194F8380001284AD001
:100AE000012084F838004FF00008C4F83C80212031
:100AF00084F83900FFF75AFCA6848146E68426E094
:100B00000120BDE8F883E08C401EE084A0684B46DD
:100B1000B0F5805F4FF000024FF080012046009753
:100B200003D000F081F9E8B90DE000F07DF9C8B913
:100B300028882168C0F308004860206908B16D1C4E
:100B400005E0AD1C03E0216815F8010B4860E08C5E
:100B50000028D8D14B46002240212046009700F0C3
:100B600063F908B10320CCE7202084F8390084F829
:100B700038800020C5E70220C3E7FEE70021064ACF
:100B80000120135C401C1944C0B289B20728F8D375
:100B9000484280B2704700004400002010B504466F
:100BA000014609A000F074F900221146162000F059
:100BB00017F84FF4FA70FFF7F1FA22460021BDE86A
:100BC0001040032000F00CB8506C61793A20256485
:100BD0000A000000002211460C2000F001B80000BD
:100BE00010B5094CE0706171A271FFF7C7FF010AEF
:100BF000E17120722146BDE810400A224FF496733D
:100C00000248FFF75DBF00004400002064000020A0
:100C1000024600210620FFF7E3BF000010B505A043
:100C200000F036F90022BDE8104011461620FFF70B
:100C3000D7BF00004D50332053746F7020210A003D
:100C400030B585B00025164801950395816941F0BE
:100C500020018161816901F020010491816941F0E5
:100C600004018161816901F004010491816941F00D
:100C7000080181618069012400F00800049040F2BD
:100C8000FF100090694602940648FFF799FACDE9F3
:100C90000045694604480294FFF792FA05B030BD5A
:100CA0000010024000080140000C0140FEE77047C0
:100CB00070477047094864210122C0E903120021EE
:100CC0004261017041708170C17002714171816136
:100CD000016241628162C162704700000000002031
:100CE000FFF76ABB10B590B028216846FFF721FADC
:100CF00014210AA8FFF71DFA022000900120049099
:100D000010200024059007946846FFF7CBFC0F20C5
:100D1000CDE90A040C940D9400210AA80E94FFF763
:100D2000D5FB10B010BD00000D48016841F0010175
:100D3000016041680B4A1140416001680A4A114054
:100D40000160016821F480210160416821F4FE0105
:100D500041604FF41F0181600449C003086070477F
:100D6000001002400000FFF8FFFFF6FE08ED00E073
:100D70002DE9F041044600680169E26821F4405120
:100D8000114301612169A068084361690843216832
:100D9000CA6841F20C639A430243CA602068416901
:100DA000A26921F44071114341611E492068642504
:100DB0003226884202D1FFF72FFC01E0FFF71CFC2E
:100DC00000EBC00101EB001160686FF018078000B4
:100DD000B1FBF0F2B2FBF5F2B1FBF0F37A4303EBB7
:100DE0008202B1FBF0F306EB0212B2FBF5F2B3FBA9
:100DF000F5F302F0F00202EB0312B1FBF0F3B1FBEA
:100E0000F0F0B0FBF5F0784303EB800006EB001048
:100E1000B0FBF5F0216800F00F0010448860BDE8D9
:100E2000F0810000003801402DE9F0419846174656
:100E30000E460446069D1DE0681C1BD02DB1FFF731
:100E4000B5FAA0EB0800A84214D92068C16821F4C3
:100E5000D071C1602068416921F001014161202009
:100E600084F8390084F83A00002084F83800032020
:100E7000BDE8F0812068006836EA000004D0002058
:100E8000B842D9D00020F3E70120F9E7FEE70000DF
:100E90000FB4054B10B503A9044A029800F028F8D6
:100EA00010BC5DF814FB0000451000086000002035
:100EB0000907090E002804DB00F1E02080F8001487
:100EC000704700F00F0000F1E02080F8141D70471B
:100ED00002E008C8121F08C1002AFAD17047704703
:100EE000002001E001C1121F002AFBD17047000061
:100EF0002DE9FF4F89B09B460446002506E02528D2
:100F00000BD05A460B999047641C6D1C2078002822
:100F1000F5D10DB02846BDE8F08F0027B846012274
:100F2000474900E0074314F8013F203B02FA03F071
:100F30000842F7D120782E2819D114F8010F47F074
:100F400004072A280ED06FF02F022078A0F130017C
:100F500009290CD808EB880102EB410100EB0108DC
:100F6000641CF2E70A98641C50F8048B0A902078FD
:100F70000028CED0642808D0692806D075281ED055
:100F80005A460B9990476D1C58E00A994FF00A0990
:100F900001C90A91002802DA40422D2102E03905F8
:100FA00004D52B218DF82010012103E0F90704D08E
:100FB0002021F7E78A4608AE0DE00021FAE70A99FA
:100FC0004FF00A0901C90A91F7E74946FFF7BCF853
:100FD000303106F8011D0028F7D1ADEB060000F115
:100FE0002009780701D44FF00108C84502DDA8EBBD
:100FF000090000E000208046002706E008A85A46C5
:10100000C05D0B9990476D1C7F1C5745F6DB04E0D3
:1010100030205A460B9990476D1CB8F10001A8F199
:101020000108F5DC05E016F8010B5A460B999047CC
:101030006D1CB9F10001A9F10109F4DC641C65E73C
:101040000928010008490968C90706D006498039FE
:101050000968CA074FF0604101D1704700BF0A68B4
:10106000002AFBD008707047800E00E01FB5F5A085
:10107000FFF70EFFFFF7A8F9FFF734FEFFF7E0FDDB
:10108000F648F549002501604FF41651C0E90115F5
:101090000C26C560C0E904568561C561FFF7A6FC52
:1010A000FFF798FD4FF4FA60FFF778F8EC4C207FDB
:1010B000FFF7AEFDC820FFF771F80120FFF76EFDC6
:1010C000FFF774F9E74FDFF8A0934FF00A084FF0ED
:1010D0000B0A40F2011B2062386820640121E348BA
:1010E000FFF75EF9E071217A012907D1A0B91E202E
:1010F000FFF754FD4FF47A70FFF750F8207A58B993
:10110000E079012808D11D20FFF748FD4FF47A70DF
:10111000FFF744F8FFF7CEFDE07920722279A1793C
:101120008A4300D0C8B3206C10F0410F7ED010F07D
:10113000810F7CD010EA0B0F01D1E6603BE110F08B
:10114000120F75D010F0220F73D010F0420F71D033
:1011500010F0820F6FD010F4817F6DD010F0140F5B
:101160006BD010F0240F69D010F0440F67D010F04E
:10117000840F7DD010F0180F7BD010F4827F79D0CF
:1011800010F0280F77D010F0480F75D010F0880FAE
:1011900073D010F4847F71D080E2FFE7FFF706F987
:1011A000A062217859B3E16B421A4A4512D2616AB2
:1011B000411AA1F5EA41303964290BD26062ACA032
:1011C000FFF766FE2420FFF7E9FC3220FEF7E6FF7A
:1011D0002078A0B1E16BA06A421A4A450FD9616A32
:1011E000421AA9491144642909D26062A7A0FFF7F5
:1011F0004FFE1320FFF7D2FC3220FEF7CFFFE16B4A
:10120000A06A401A48450CD3217851B19649494209
:101210000844642805D22020FFF7C0FC3220FEF7E6
:10122000BDFFE16BA06A401A9E4909E095E297E292
:1012300099E29AE29BE29CE2B4E2B5E2F8E0F8E0DF
:1012400088420CD3217851B1964949420844642818
:1012500005D22120FFF7A2FC3220FEF79FFFE16BB1
:10126000A06A401A9049884214D3217891B106E0CF
:101270009CE29DE29EE29FE2A1E2A2E2A3E28A4911
:1012800049420844642805D22320FFF787FC322016
:10129000FEF784FFE16BA06A401A844988420CD3B0
:1012A000217851B1814949420844642805D222205D
:1012B000FFF774FC3220FEF771FFE16BA06A401A61
:1012C0007B4988420CD3217851B17949494208447D
:1012D000642805D22220FFF761FC3220FEF75EFF72
:1012E000A16BA06A411A47F23050814206D3A07820
:1012F00020B1FFF7DFFC6FA0FFF7CAFDFFF756F83C
:10130000216A401A704988420BD3207848B90120DD
:10131000A0716EA0FFF7BCFDFFF7CCFCFFF746F80D
:101320002062206C10F0410F3FD010F0810F44D0AC
:1013300010EA0B0F04D1E6602078A8B30B2009E275
:1013400010F0120F4CD010F0110F49D010F0220FF6
:101350004ED010F0420F66D010F0820F64D010F41F
:10136000817F62D010F0140F60D010F0210F5ED09A
:1013700010F0240F5CD010F0440F5AD010F0840FFE
:1013800058D010F0180F56D010F4827F54D010F0BF
:10139000280F52D010F0480F50D010F0880F4ED0C8
:1013A00010F4847F4CD079E105E0C4F80C802078FB
:1013B00008B10D20CEE1C8206EE1C4F80CA0207861
:1013C0000028F8D00C20C5E1FEF7F0FF216B411A90
:1013D00041F28830814234D3182024E196205BE129
:1013E000FEF7E4FFE560606220780028F6D0EBE7C6
:1013F0000620E060207861780843DCD10120A070ED
:10140000FEF7D4FFA06320690C286ED004DC01280D
:1014100007D002286FD164E00D2868D00E286AD169
:1014200067E003205EE06AE07FE0AFE0D0E0E8E064
:10143000FFE000E101E13CE141E170E175E17CE1C7
:1014400082E1F2E04170706C69636174696F6E20D3
:1014500073746172740A0000004800406400002048
:101460000000002008080140E0930400000C014047
:101470003330732072656D696E64207370656564C6
:101480002075703A20000000402BFEFF3270207261
:10149000656D696E642073706565642075703A20AF
:1014A00000000000A0BB0D00804F120060E316009A
:1014B00040771B0070726F6772616D2074696D6593
:1014C0006F75740A00000000C0270900476F207480
:1014D0006F20736C656570206D6F64650A00000095
:1014E00003E00420FFF75AFB05E00520FAE7062099
:1014F000F8E72561A5702069401C20615BE7FEF7D5
:1015000055FF60626063E0622063E0630720E06093
:1015100020780028F2D10720FFF740FB012020703F
:10152000206160616570A57045E70820E0600120DA
:10153000E070C820FEF732FEE07810B1A069401CD0
:10154000A061207870B1FEF731FFE16B411A47F2DC
:101550003050814203D90220FFF720FB0FE0FFF754
:101560005DFB0CE0A0690A287BD008E02571122001
:1015700002E0012020711120FFF710FBA56125700A
:101580000120206160616570A57087E00920E0603E
:101590002078A1780843B1D10120607060690128EA
:1015A00006D0022806D0032808D004280CD107E072
:1015B000082000E00920FFF7F1FA05E00A20FAE729
:1015C000FFF72CFB656165706069401C6061F2E6A5
:1015D000FEF7ECFE60620120E0609620FEF7DEFD83
:1015E0002078E8B3FEF7E2FE216B411A41F2883021
:1015F000814202D31920FFF7D1FAFEF7D7FE20630C
:101600004CE0FEF7D3FE60620120E0602078002805
:101610003FF4E4AEFEF7CAFE216B411A41F2883076
:10162000814202D31920FFF7B9FAFEF7BFFE20630B
:10163000D4E60220C1E00320BFE0FEF7B7FE6062FF
:101640000420E060E069401DE0611E2801DB1E20EF
:10165000E061A07861780843217808430FD101E068
:101660001CE09AE0207FFFF7D3FA6420FEF796FD96
:101670001420FFF793FA62A0E169FFF709FC2078D4
:1016800048B1FEF793FEE16A411A41F28830814287
:1016900041D315203DE03220FEF780FDE06864284C
:1016A0003FF41AAD082800D0E570E079012873D026
:1016B00091E0FEF77BFE60621020E060DFE7FEF75E
:1016C00075FE60620520E060E069401FE06100286F
:1016D00000DCE561A07861780843217808430CD1EB
:1016E000207FFFF795FA6420FEF758FD1720FFF7DB
:1016F00055FA43A0E169FFF7CBFB20780028CAD058
:10170000FEF754FEE16A411A41F28830814202D369
:101710001620FFF743FAFEF749FEE062BBE7FEF74B
:1017200045FE60621120E060E7E70D20E060207870
:1017300000283FF403AD10200CE00E20E06020787C
:101740000028F6D00F2005E00F20E0602078002868
:10175000EFD00E20FFF722FA2DE6C4F80C802AE61F
:10176000C4F80CA027E6E56038E606202CE0072048
:101770002AE00820E0600120E070FFF74FFAC8205F
:10178000FEF70CFDE07810B1A069401CA061207844
:1017900000283FF4E7AEDEE618E0207900283FF4A9
:1017A000E8AEE3E609200FE0012006E0042004E0B3
:1017B000102002E0052000E01120E0600EE60D2080
:1017C00002E00E2000E00F20E060F4E51A20FFF7B1
:1017D000E5F9FFF76FFAFEF7E9FD2062A571E07900
:1017E00062782179CDE90250CDE90012A378227800
:1017F0000648E168FFF74CFB6420E0606CE4000001
:10180000566F6C3A2025640A000000002818000872
:1018100000000000000000000102030406070809A0
:1018200000000000010203044B65793A2025642082
:101830002D2D20497353746172743A202564202D34
:101840002D2049734D6F64653A202564202D2D208D
:1018500069734F6E3A202564202D2D2069735365DE
:101860007475703A202564202D2D206973536C65A2
:1018700065703A202564202D2D20536166654B65E7
:10188000793A2025640A0000A8180008000000200A
:1018900064000000D00E00080C190008640000204D
:1018A00044040000E00E00080000000001000000F9
:1018B00000000000640000000100000001000000C2
:1018C000000000000F000000000000000000000009
:1018D0000000000000000000000000000000000008
:1018E0000000000000000000000000007EFF060075
:1018F0000100000000EF00000100000010000000E7
:0C190000000000000024F40000000000C3
:04000005080000ED02
:00000001FF
